:020000040000FA
:060000007CEF1DF0120070
:060008008FEF10F0120062
:06001800E2EF10F01200FF
:06102A000100163B00006E
:0810300059010000110000004D
:08103800D9CFE6FFE1CFD9FF9B
:10104000E652A0940F015F6B626A160E616E9F0EEE
:101050005B6F7B0E606E648C5C6B030EE66EE66A03
:10106000E66A540EE66E0F0EE66E3CEC1DF0106E56
:10107000050EE15E1050649CDF6ADF50106E116A4D
:10108000100E105C000E115810E2DF50040DF3CF6B
:10109000E9FFF4CFEAFF000EE926020EEA22EE6A2B
:1010A000EE6AEE6AEE6ADF2AE8D70F01160E536F7A
:1010B00062A602D06296FCD70001E56BEA6BEB6B8F
:1010C000EC6B6498DF6A040EDF5C18E2EA6ADF34D6
:1010D000FE0BEA36E96ED90EE926000EEA22EE6A28
:1010E000ED6AEA6ADF34FE0BEA36E96ED10EE926D4
:1010F000000EEA22EE6AED6ADF2AE5D70001080E4B
:10110000D96F020EDA6FCB6BCA6BE552E552E7CFAF
:10111000D9FF1200D9CFE6FFE1CFD9FFE652000197
:10112000CA0507E164BA05D0626A60806088020E71
:10113000CA6F6250040B05E06050040B02E0629439
:10114000B9D864B260D06250010B16E06050010B58
:1011500013E072DFD08EA284A084F28E0001040E10
:10116000CA6F0201400E026F020E036F080E016F7C
:10117000006B8C0E001362906250100B05E0605003
:10118000100B02E085D862986250400B13E060506B
:10119000400B10E0010EE66EE66A000EE66EE66AAF
:1011A000730EE66EE66A67EC11F0106E060EE15EF5
:1011B0001050629C6250200B04E06050200B01E054
:1011C0004DD86250020B14E06050020B11E0010E8A
:1011D000E66EE66A000EE66EE66AE6687F0EE66E8A
:1011E00067EC11F0106E060EE15E10500F015F6BA0
:1011F000040E0001E76ECA19E8AE02D0E73402D04F
:10120000E750CA5D02E2A19424D060A621D0DF6A33
:10121000040EDF5C1DE262A61BD063CFF2F0629683
:10122000780E0001F21502E15AD810D0000EE66ED9
:10123000E66AF20EE66E000EE66E720EE66EE66A84
:1012400067EC11F0106E060EE15E1050DF2AE0D759
:10125000A194E552E552E7CFD9FF12000F0153A147
:1012600015D0CDC0E9FFCEC0EAFFEF5080080DE1F8
:10127000D9C0E9FFDAC0EAFFEF50840806E1CDC02B
:10128000E9FFCEC0EAFF8C0EEF6E5391629A120016
:10129000608462986482000EE66EE66AE66EE66A34
:1012A000750EE66EE66A67EC11F0106E060EE15EF2
:1012B00010501200000EE66EE66AE66EE66A740EE4
:1012C000E66EE66A67EC11F0106E060EE15E1050F5
:1012D0006492609462A402D06294FCD71200D9CFC9
:1012E000E6FFE1CFD9FFE652FD0E0001F2155AE10B
:1012F0007E0EF215E8407F0B040DF3CFCDF0F4CF56
:10130000CEF0000ECD27020ECE23CDC0CFF0CEC042
:10131000D0F0CF75CDC0E9FFCEC0EAFFEF503C0B57
:10132000E842E8420D083CE1CDC0E9FFCEC0EAFF4B
:10133000020EE926000EEA22EECF10F0EFCF11F0F8
:10134000480E10182BE1020E111828E1CDC0E9FF5C
:10135000CEC0EAFF020EE926000EEA22400EEE6E33
:10136000020EED6EDF6ADF50106E116A080E105C1F
:10137000000E115813E2DF50EA6A480FE96E020EC0
:10138000EA22EF50E66EDF50EA6A400FE96E020E85
:10139000EA22E552E750EF6EDF2AE5D70DD807D0F5
:1013A0002ED805D0FD0EF215040801E14ED8E55205
:1013B000E552E7CFD9FF1200D9C0E9FFDAC0EAFF52
:1013C000EF50800B05E0D9C0E9FFDAC0EAFFEF6A11
:1013D0000001E16BE26BE66BE76BE56BB5D8000EE5
:1013E000E66EE66AE66EE66A030EE66EE66A67ECAD
:1013F00011F0106E060EE15E105039EF0CF0020E87
:101400000001E25D02E194EF0DF06CD80001F351B0
:101410001AE1CFC0E9FFD0C0EAFFEE52080EEF6E2E
:10142000CFC0E9FFD0C0EAFF020EE926000EEA2293
:10143000400EEE6E020EED6ECFC0E9FFD0C0EAFFA7
:101440008C0EEF6E1200F36B1200D9CFE6FFE1CFE6
:10145000D9FFE652D9C0E9FFDAC0EAFFEF50400BEE
:1014600001E0010EDF6E0001D975080ECA5D0CE1C6
:1014700042C25CFF0F015C51000803E20001100E44
:1014800002D00001040ECA6FE20526E1D9C0E9FFCF
:10149000DAC0EAFF020EE926000EEA22480EEE6EDE
:1014A000020EED6EB8DA020E0001E15D06E1D9C070
:1014B000E9FFDAC0EAFF840E0DD0DF5006E1D9C0A3
:1014C000E9FFDAC0EAFFC80E05D0D9C0E9FFDAC0EB
:1014D000EAFF880EEF6E01D005D8E552E552E7CF5E
:1014E000D9FF1200D9CFE6FFE1CFD9FF020EE126E6
:1014F0000001E26BD9C0E9FFDAC0EAFFEF6A040E2F
:10150000D919106EDAC011F0DE6EDAC0DDFFDECF61
:10151000E9FFDDCFEAFFEF6AEAAF0CD0ED51EE1143
:1015200007E005D0EEC0FAFF0001ED51F96EFADFD9
:101530000001EA9F020EE15C02E2E16AE552E16E1F
:10154000E552E7CFD9FF120002014051600BE8429B
:10155000E842E842E842E842000901E01200415155
:101560000C0A50E00B0A3FE00C0A31E0010A22E0CD
:101570000B0A1EE0020A1CE0030A18E0080A10E049
:10158000010A0CE00F0A08E0030A01E01200000162
:10159000E58F080ECA6F120088EF0BF030EF0EF0E7
:1015A0000001CB0EE36F000EE46F0CD0DFEF0BF009
:1015B00003EF0BF044510001E36FE46BCC0EE32723
:1015C000000EE423E581010EE66FE58F12000001B5
:1015D000E58F02014451EA6ACC0FE96E000EEA225F
:1015E00042C2EFFF1200000EE66EE66AE66EE66AA1
:1015F000020EE66EE66A67EC11F0106E060EE15E12
:10160000105012001200D9CFE6FFE1CFD9FF040E2F
:10161000E1260201420510E140511F0B00090CE1D7
:101620000001E58F030E0201415D04E10001010E9E
:10163000F16F02D00001F16B020142515FE14051B4
:101640001F0B02085BE144510F0B000957E000013A
:10165000E58F020144BF0BD044510F0BE96EEA6ADB
:10166000D890E936EA36D10EE926000E0AD0445168
:101670000F0BE96EEA6AD890E936EA36D90EE92608
:10168000000EEA22EECFDEFFEDCFDDFF030E415D5F
:1016900006E1DECFE9FFDDCFEAFF840E2ED0445114
:1016A0000F0B116A530F106E0F0E1122020E10C095
:1016B000DBFF030E11C0DBFF020EDBCFE9FF030EE1
:1016C000DBCFEAFFEF9044AF0CD0DECFE9FFDDCFF8
:1016D000EAFFEF6ADF74DECFE9FFDDCFEAFF400EFD
:1016E0000CD0DECFE9FFDDCFEAFF880EEF6EDF74AE
:1016F000DECFE9FFDDCFEAFFC80EEF6E040EE15C3E
:1017000002E2E16AE552E16EE552E7CFD9FF12004D
:10171000800E0201405D52E10001C00EE56F020142
:101720004351030A29E0010A09E0030A45E10001E7
:10173000F80EE36F380EE46F120E38D04251F66E99
:10174000F76AD890F636F7368D0EF626390EF72260
:101750000900F5CFE3F00A00F5CFE4F0020E000136
:10176000F76AE325F66EE451F7220900F5CFE6F0BB
:101770000A00F5CFE7F01200030E425D1AE2425173
:10178000F66EF76AD890F636F7368F0EF626390ED3
:10179000F7220900F5CFE3F00A00F5CFE4F0E3C04B
:1017A000F6FFE4C0F7FF0800F5500001E66FE76BB5
:1017B00012000001E56B12000001E56B1200D9CFA9
:1017C000E6FFE1CFD9FF020EE1260201486B496B2B
:1017D00040511F0B020A11E0030A0CE0010A35E137
:1017E0000001E58F020148810001F1052EE10201AF
:1017F00048832BD00001E58F28D00001E58F02013E
:1018000044BF0BD044510F0BE96EEA6AD890E93619
:10181000EA36D10EE926000E0AD044510F0BE96ECC
:10182000EA6AD890E936EA36D90EE926000EEA22AD
:10183000EECFDEFFEDCFDDFFDECFE9FFDDCFEAFF4C
:10184000EF50040B02E0010E486F0001E5AF07D036
:10185000480EE36F020EE46FE581020EE66F020EA2
:10186000E15C02E2E16AE552E16EE552E7CFD9FFC1
:10187000120064980001E5BF47D0EAAF26D0020EFF
:10188000E26FD9C0E9FFDAC0EAFFEE52EF6AD9C0D1
:10189000E9FFDAC0EAFFC80EEF6ECFC0E9FFD0C0A3
:1018A000EAFFEE52080EEF6ECFC0E9FFD0C0EAFFAC
:1018B000020EE926000EEA22480EEE6E020EED6ED2
:1018C000CFC0E9FFD0C0EAFF7AD0CFC0E9FFD0C0D7
:1018D000EAFFEE52080EEF6ECFC0E9FFD0C0EAFF7C
:1018E000020EE926000EEA22400EEE6E020EED6EAA
:1018F000CFC0E9FFD0C0EAFF8C0EEF6ED9C0E9FF80
:10190000DAC0EAFF840E5CD0EABF84D0020140AFA7
:1019100059D00001E6510201465D0001E751020184
:10192000475904E246C2E6F047C2E7F074D8000126
:10193000010EE26FCFC0E9FFD0C0EAFFEE52080E01
:10194000EF6ECFC0E9FFD0C0EAFF020EE926000E1D
:10195000EA22400EEE6E020EED6ECFC0E9FFD0C05F
:10196000EAFF800EEF6EF36BCDC0E9FFCEC0EAFF59
:10197000EE52080EEF6ECDC0E9FFCEC0EAFF020EB8
:10198000E926000EEA22400EEE6E020EED6ECDC08C
:10199000E9FFCEC0EAFF840EEF6E010EF36FD9C0EF
:1019A000E9FFDAC0EAFF020EE926000EEA22480E3D
:1019B000EE6E020EED6ED9C0E9FFDAC0EAFFC80E86
:1019C000EF6E12000001020EE26FD9C0E9FFDAC02B
:1019D000EAFFEE52EF6AD9C0E9FFDAC0EAFFC80EAB
:1019E000EF6ECFC0E9FFD0C0EAFFEE52080EEF6EF7
:1019F000CFC0E9FFD0C0EAFF020EE926000EEA22BE
:101A0000480EEE6E020EED6ECFC0E9FFD0C0EAFFC9
:101A1000C80EEF6E1200D9CFE6FFE1CFD9FF020E5C
:101A2000E1260001080EE65D000EE7590DE2E6C072
:101A3000DEFFE7C0DDFFE15102E1010E03D0E10569
:101A400006E1020EE16F03D0080EDE6EDD6AD9C03A
:101A5000E9FFDAC0EAFFEF92D9C0E9FFDAC0EAFF96
:101A6000EF90D9C0E9FFDAC0EAFF010EDB50EF12B8
:101A7000D9C0E9FFDAC0EAFFEE52DFCFEFFF000E78
:101A8000DB50E65F010EDB50E75B480EEF6F020EA6
:101A9000F06FE5B120D0D9CFE9FFDACFEAFFEE5001
:101AA000ED1038E0E3C0F6FFE4C0F7FFE32B000ED3
:101AB000E4230800F550E66EEFC0E9FFF0C0EAFF4E
:101AC000EF2B000EF023E552E750EF6EDF06010E1C
:101AD000E2E2DB06E0D7D9CFE9FFDACFEAFFEE504A
:101AE000ED1018E0E3C0E9FFE4C0EAFFE32B000ECD
:101AF000E423EF50E66EEFC0E9FFF0C0EAFFEF2B02
:101B0000000EF023E552E750EF6EDF06010EE3E230
:101B1000DB06E1D7020EE15C02E2E16AE552E16E2A
:101B2000E552E7CFD9FF1200D9CFE6FFE1CFD9FFC9
:101B3000020EE126CDC0E9FFCEC0EAFFEE52EFCFA4
:101B4000DFFFDFCF10F010500001EB5D000EEC590D
:101B500002E2EBC0DFFFDF50106E116AE850EB5D70
:101B6000EB6F1150EC59EC6F010EDB6ADF50F36E36
:101B7000010EDBCFF4FFF350F45C16E2010EDB50F4
:101B8000EA6A480FE96E020EEA22EF50E66EE8C0FC
:101B9000E9FFE9C0EAFFE82B000EE923E552E75030
:101BA000EF6E010EDB2AE2D7000ED880EB55000E57
:101BB000EC5527E2CFC0E9FFD0C0EAFFEE52080E95
:101BC000EF6ECFC0E9FFD0C0EAFF020EE926000E9B
:101BD000EA22480EEE6E020EED6ECDC0E9FFCEC0D9
:101BE000EAFFEF50400B06E1CFC0E9FFD0C0EAFFAB
:101BF000C80E05D0CFC0E9FFD0C0EAFF880EEF6E57
:101C000025D0CFC0E9FFD0C0EAFFEE52080EEF6E3C
:101C1000CFC0E9FFD0C0EAFF020EE926000EEA229B
:101C2000400EEE6E020EED6ECFC0E9FFD0C0EAFFAF
:101C3000840EEF6EED51EE1107E005D0EEC0FAFF15
:101C40000001ED51F96EFADF0001EA9F020EE15C3E
:101C500002E2E16AE552E16EE552E7CFD9FF1200F8
:101C6000D9CFE6FFE1CFD9FFE6520001E58F030EA1
:101C7000E66EE66AE66A540EE66E0F0EE66E3CEC21
:101C80001DF0106E050EE15E1050DF6ADF50106E21
:101C9000116A100E105C000E115810E2DF50040D96
:101CA000F3CFE9FFF4CFEAFF000EE926020EEA22A5
:101CB000EE6AEE6AEE6AEE6ADF2AE8D7648C010EFD
:101CC000E66EE66AE66ACC0EE66E000EE66E3CEC68
:101CD0001DF0106E050EE15E1050649C0001080EB0
:101CE000D96F020EDA6F000ECD6F020ECE6FCDC02F
:101CF000CFF0D06F42C2CBF0CB5102E1100E12D028
:101D0000010EE66EE66ACB0EE66E000EE66E010E82
:101D1000E66EE66A67EC11F0106E060EE15E10509A
:101D20000001200ECA6FE552E552E7CFD9FF12003D
:101D3000D9CFE6FFE1CFD9FF020EE126000EDE6E1D
:101D4000020EDD6EFD0EDB50E824126EFE0EDB503F
:101D5000040DF3501224040DF350106E116A020E9C
:101D60000F0B05E0D89011321032E806FBE1D89055
:101D700010361136D89010361136D9CFE9FFDACFA8
:101D8000EAFF1050EE261150ED22DECFE9FFDDCF45
:101D9000EAFFEF9EFD0EDB500AE1FE0EEA6ADB343D
:101DA000FE0BEA36E96ED10EE926000E09D0FE0ED2
:101DB000EA6ADB34FE0BEA36E96ED90EE926000E3C
:101DC000EA22DECFEEFFDDCFEDFFDECFE9FFDDCF94
:101DD000EAFFEF9CDECFE9FFDDCFEAFF040EE92644
:101DE000000EEA22EF8C020EE15C02E2E16AE552AB
:101DF000E16EE552E7CFD9FF1200D9CFE6FFE1CF80
:101E0000D9FF020EE126FE0EDB50116A530F106E51
:101E10000F0E112210C0DEFF11C0DDFFDECFE9FF83
:101E2000DDCFEAFFFD0EDBCFEFFFDBA407D0E66AD4
:101E3000FE0EDBCFE6FF7CDFE552E552FD0EDBA2B6
:101E400008D0010EE66EFE0EDBCFE6FF71DFE55235
:101E5000E552020EE15C02E2E16AE552E16EE55212
:101E6000E7CFD9FF1200D9CFE6FFE1CFD9FF020EAD
:101E7000E126FE0EDB5020E1CFC0E9FFD0C0EAFF33
:101E8000EE52080EEF6ECFC0E9FFD0C0EAFF020E9F
:101E9000E926000EEA22400EEE6E020EED6ECFC075
:101EA000E9FFD0C0EAFF8C0EEF6ED9C0E9FFDAC0BF
:101EB000EAFF840EEF6E3BD0FD0EDB50E824126E7D
:101EC000FE0EDB50040DF3501224040DF3CF10F07E
:101ED000F4CF11F0000E1026020E112210C0DEFF0A
:101EE00011C0DDFF840EDECFE9FFDDCFEAFFE85051
:101EF000EF12FD0EDB50E824126EFE0EDB50040DD7
:101F0000F3501224010F040DF3CF10F0F4CF11F0B1
:101F1000000E1026020E112210C0DEFF11C0DDFFE0
:101F2000840EDECFE9FFDDCFEAFFE850EF12020EAC
:101F3000E15C02E2E16AE552E16EE552E7CFD9FFEA
:101F40001200D9CFE6FFE1CFD9FF020EE126FD0E48
:101F5000DB500AE0FE0EEA6ADB34FE0BEA36E96E7D
:101F6000D90EE926000E09D0FE0EEA6ADB34FE0B1C
:101F7000EA36E96ED10EE926000EEA22EECFDEFF48
:101F8000EDCFDDFFD9CFE9FFDACFEAFFEE50ED105C
:101F900003E1F36AF46A44D0DECFE9FFDDCFEAFF64
:101FA000020EE926000EEA22FB0EDBCFEEFFFC0E4E
:101FB000DBCFEDFFDECFE9FFDDCFEAFFEE52FA0E19
:101FC000DBCFEFFF400EDECFE9FFDDCFEAFFE850C9
:101FD000EF16880EDECFE9FFDDCFEAFFE850EF1203
:101FE000FD0EDB500AE0FE0EEA6ADB34FE0BEA3639
:101FF000E96ED90EE926000E09D0FE0EEA6ADB343E
:10200000FE0BEA36E96ED10EE926000EEA22EF74E5
:10201000DECF10F0DDCF11F010C0F3FF11C0F4FFE0
:10202000020EE15C02E2E16AE552E16EE552E7CFC1
:10203000D9FF1200D9CFE6FFE1CFD9FF64A84ED077
:10204000FE0EEA6ADB34FE0BEA36E96ED90EE926AB
:10205000000EEA22EE50EFCFEAFFE96E400EEE16D8
:10206000EE6AEE6AEE6AFE0EEA6ADB34FE0BEA36D0
:10207000E96ED90EE926000EEA22EE50EFCFEAFF14
:10208000E96EEE7CFE0EEA6ADB34FE0BEA36E96EA0
:10209000D90EE926000EEA22EF74400E106EFE0EF5
:1020A000EA6ADB34FE0BEA36E96ED90EE926000E49
:1020B000EA22EE50EFCFEAFFE96E1050EF16FE0E67
:1020C000EA6ADB34FE0BEA36E96ED90EE926000E29
:1020D000EA22EE50EFCFEAFFE96EEF7CE552E7CF60
:1020E000D9FF1200646A606A0001CA6B1200000125
:1020F000CA5114E1646A606A160E616E0F019F0E88
:102100005B6F7B0E606ED08EA284A084F28E64B66C
:0E21100002D06486FCD70001010ECA6F1200D7
:02211E00DACF16
:10212000E4FFE2CFDAFFE9CFE4FFEACFE4FFF6CF46
:10213000E4FFF7CFE4FFF5CFE4FFF3CFE4FFF4CF04
:10214000E4FFFACFE4FF00EE00F0100EE80403E332
:10215000EECFE4FFFBD700EE10F00A0EE80403E335
:10216000EECFE4FFFBD7E6528AEC08F09D50100B4F
:1021700005E09E50100B02E09DEC15F0E55200EEDC
:1021800019F00A0EE80403E3E5CFEDFFFBD700EEFC
:102190000FF0100EE80403E3E5CFEDFFFBD7E5CF2A
:1021A000FAFFE5CFF4FFE5CFF3FFE5CFF5FFE5CF8D
:1021B000F7FFE5CFF6FFE5CFEAFFE5CFE9FFE5CF93
:1021C000DAFF1100D8CFE4FFE0CFE4FFE46EDACF0E
:1021D000E4FFE6529D50020B11E09E50020B0EE010
:1021E00001015A2B000E5B235C2B5D23645105E13A
:1021F000602B000E6123622363239E92E552E5CF9C
:10220000DAFFE550E5CFE0FFE5CFD8FF100017D8A3
:102210000001CA5102E177EC10F0E4D893DA34DA25
:1022200001015F5109E09E50100B06E05F2B5F51EA
:10223000030802E28A9C5F6B86EC1BF0E9D70F0E65
:10224000C11204D81CEC08F0CBEF1CF000011F0EEB
:10225000806F816B826B010EA36F1F0EA46FA56B45
:10226000A66B010EC76FCF0E8B1694168B988B9AA8
:102270009388939C939A949E938E9484948C949038
:102280008B9C8B908A9C3C0ECB6ECC6A9E929D82DE
:102290009F92D08EF28CF28EF28EF28CCA84120053
:1022A000120012001200120009EF1AF0120057EF8C
:1022B0001AF064840001080EC86F070EC96FC807C2
:1022C000000EC95BC851C911FAE164941200D9CF5C
:1022D000E6FFE1CFD9FFFD0EDBCF08F0FE0EDBCF2E
:1022E00009F0720E081801E1095033E0E868081897
:1022F00002E17F0E09182BE0740E081801E1095065
:1023000024E0750E081801E109501DE0730E08184D
:1023100001E1095016E0030E081801E109500FE031
:10232000020E081801E1095008E0010E081801E149
:10233000095001E010D0BBDF0FD0B8DF0DD0B4DF03
:102340000BD0B0DF09D0ACDF07D0ABDF05D0ABDFFF
:1023500003D0000001D000D0010E00D0E552E7CF3D
:10236000D9FF1200D9CFE6FFE1CFD9FF040EE12655
:10237000DE6ADD6A020EDB6A030EDB6A020EDBCF69
:1023800010F0030EDBCF11F0FC0EDB50000111AE9C
:1023900002D0D89003D0105C000E115816E2020E45
:1023A000DBCF10F0030EDBCF11F0FD0EDB5010245D
:1023B000E96EFE0EDB501120EA6EEF50DF1A020EBE
:1023C000DB2A030EDBE3DB2AD9D7DF50106E040EC5
:1023D000E15C02E2E16AE552E16E1050E552E7CFBE
:1023E000D9FF1200D9CFE6FFE1CFD9FF020EE126D7
:1023F0000101200ED8805C554E0E5D5516E200019D
:10240000A6510101675D11E067C1A6F05C6B5D6BD1
:10241000AB860001010E606F020E616F030E626FEA
:102420000101415101E026D1E1D0D880A00E6055D4
:10243000860E6155010E6255000E635518E2645117
:1024400016E1010E646F0001606F050E616F040EEE
:10245000626F010141510BE1030EE66E600EE66E04
:10246000000EE66EE8EC1AF0E552E552E5528A50AD
:10247000400B01E0FFD0EEEC1CF0000901E1FAD0C6
:1024800001015C6B5D6BF3EC1CF0F3CF65F1F4CFF5
:1024900066F10101F45004E1AB50080B01E0EAD011
:1024A000665101E187D01F0E6515190804E01F0E63
:1024B000651501E0DFD0DF6A010EDB6A080EDF5C24
:1024C00018E201016551DF5206E0DFCFF3FFE83289
:1024D0007F0BF306FCE1010B0AE0010EDB5002E08A
:1024E000000E01D0010EE76E010EE7CFDBFFDF2A01
:1024F000E5D7010EDB5002E0C9DBBCD0010165511C
:10250000E00BE838E840030B020832E11F0E6515C6
:1025100019082EE1606B616B626B636B645102E0C2
:10252000646B9EDB800EE66E000EE66EB3EC17F079
:10253000E552E552106E020E105C01E29BD0800E57
:10254000E66E000EE66EB3EC17F0E552E552116E42
:1025500000018151EA6A830FE96E000EEA22EF5012
:102560000F0B020F115C01E285D08A8CE6DA82D073
:102570006551E00BE838E840030B0FE11F0E6515CD
:1025800019080BE10001010E606F030E616F020E6E
:10259000626F010141516EE129D0AB96A6C067F18F
:1025A000686B65C1E6FFA40EE66E000EE66E5CEC9D
:1025B00016F024D0A40EE66E000EE66EF7EC17F0CF
:1025C000E552E55200091EE067C1A6F0AB860001A6
:1025D000A551A65D02E1010EC76F010E606F060EE8
:1025E000616F070E626F0101415144E1030EE66E17
:1025F000600EE66E000EE66EE8EC1AF0E552E5526B
:10260000E55238D065C1E6FFA40EE66E000EE66E18
:102610005CEC16F0E552E552E55201016551681B8C
:10262000A6C0E6FF67C1E6FFA40EE66E000EE66EEA
:1026300090EC18F0E552E552E552E552106E0101BA
:1026400067290001A415EA6AA70FE96E000EEA22C5
:10265000EF500F0B030F105C0DE30101685109E00F
:1026600067C1A6F00001A551A65D02E1010EC76F8A
:102670000DDBAB86020EE15C02E2E16AE552E16E3F
:10268000E552E7CFD9FF12000101415101E01200EC
:10269000A40EE66E000EE66EB3EC17F0E552E552BE
:1026A000106E010E105C4DE3A40EE66E000EE66E99
:1026B000B3EC17F0E552E552116E0001A529A415FF
:1026C000EA6AA70FE96E000EEA22EF500F0B030F24
:1026D000115C37E3A529A415EA6AA70FE96E000E7D
:1026E000EA22EF500F0B030FE66EA5C0E6FF600E67
:1026F000E66E000EE66EA40EE66E000EE66EA8EC28
:1027000018F0106E060EE15E10500F0E00016115FC
:10271000020FE66E610EE66E000EE66EE8EC1AF051
:10272000E552E552E5520F0E00016115030FE66E0A
:10273000A40EE66E000EE66E26EC17F0E552E552AA
:10274000E5521200D9CFE6FFE1CFD9FF030EE12613
:10275000200E0001E76ECA19E8AE02D0E73402D0BD
:10276000E750CA5D01E20ED16450020B01E00AD1CC
:102770000101415101E006D1800EE66E000EE66EC9
:1027800051EC18F0E552E55200091CE10001010E80
:10279000606F060E616F070E626F010141510BE120
:1027A000030EE66E600EE66E000EE66EE8EC1AF0C2
:1027B000E552E552E552800EE66E000EE66EDFEC65
:1027C00019F041D0800EE66E000EE66E51EC18F066
:1027D000E552E552E66E800EE66E000EE66E8BEC7C
:1027E0001AF0E552E552E552E76E020EE7CFDBFF45
:1027F000DB502CE10101200ED8805A554E0E5B555E
:1028000001E3C0D0000182510101695D01E1BAD04C
:1028100069C182F05A6B5B6B00018151825D02E1FC
:10282000010EA36F010E606F616F626B0101415178
:1028300001E0A8D0030EE66E600EE66E000EE66EB6
:10284000E8EC1AF0E552E552E5529CD001015A6BD2
:102850005B6B82C0E6FF69C1E6FF800EE66E000E8C
:10286000E66E90EC18F0E552E552E552E5520008AC
:1028700001E388D082C0E6FF69C1E6FF800EE66E04
:10288000000EE66E90EC18F0E552E552E552E55286
:10289000106E01016951EA6A830FE96E000EEA22A7
:1028A000EF500F0B020F105C6DE3010EDB6ADF6A65
:1028B00001016951EA6A830FE96E000EEA22EF50C6
:1028C0000F0B020FFF0FF36E010EDBCFF4FFF3507F
:1028D000F45C0FE2010EDB50692500018015EA6A05
:1028E000830FE96E000EEA22EF50DF1A010EDB2A99
:1028F000DFD7010EDB50692500018015EA6A830FDE
:10290000E96E000EEA22EF50DF5C19E00101695127
:10291000EA6A830FE96E000EEA22EF500F0B020FF6
:10292000E66E69C1E6FF800EE66E000EE66E06EC0E
:1029300019F0E552E552E552E552A8D923D001013C
:102940006951EA6A830FE96E000EEA22EF500F0B1D
:10295000020FE66E69C1E6FF1FD8E552E552000995
:1029600001E177D701016951EA6A830FE96E000E30
:10297000EA22EF500F0B020F6925000180150101BB
:10298000696F67D7030EE15C02E2E16AE552E16E2E
:10299000E552E7CFD9FF1200D9CFE6FFE1CFD9FF4B
:1029A000020EE126FE0EDB50EA6A830FE96E000E8E
:1029B000EA22EF50F00827E1020EE66EFE0EDBCFB2
:1029C000E6FF800EE66E000EE66E06EC19F0E552AC
:1029D000E552E552E5520001020E606F200E616F74
:1029E000100E626F030EE66E600EE66E000EE66E6F
:1029F000B9DCE552E552E5520001636F0101415136
:102A000001E08ED07FD0FE0EDB50EA6A830FE96EC4
:102A1000000EEA22EF50F20831E1FE0EDB28000141
:102A20008015EA6A830FE96E000EEA22EF0426E1C0
:102A3000040EE66EFE0EDBCFE6FF800EE66E000EA5
:102A4000E66E06EC19F0E552E552E552E55200015A
:102A5000F20E606F010E616F1F0E626F030EE66E65
:102A6000600EE66E000EE66E7DDCE552E552E55244
:102A70000001636F0101415153E144D0FE0EDB5070
:102A8000EA6A830FE96E000EEA22EF50F20846E18F
:102A9000FE0EDB2800018015EA6A830FE96E000E46
:102AA000EA22EF5002083AE1040EE66EFE0EDBCF9A
:102AB000E6FF800EE66E000EE66E06EC19F0E552BB
:102AC000E552E552E5520001F20E606F020E616FB1
:102AD000FE0EDB50020F8015EA6A830FE96E000ECE
:102AE000EA22EFCF62F0030EE66E600EE66E000E95
:102AF000E66E38DCE552E552E5520001636F0101F4
:102B000041510EE1040EE66E600EE66E000EE66EBA
:102B1000E8EC1AF0E552E552E55202D0010E01D080
:102B2000000E106E020EE15C02E2E16AE552E16E17
:102B30001050E552E7CFD9FF12008B7801015E51AA
:102B4000EA6A830FE96E000EEA22EF50E66E000E8D
:102B5000E66EE66ADDEC1CF0E552E552E552010155
:102B60005E290001801501015E6F00018151EA6A52
:102B7000830FE96E000EEA22EF500F0B020F812542
:102B8000801501015E5D0DE15EC181F000018251A1
:102B9000815D02E1010EA36F9D980101010E5F6F3F
:102BA00012009D881200D9CFE6FFE1CFD9FF020EB7
:102BB000E126DE6ADD6ADECF10F0DDCF11F0FD0E1A
:102BC000DBCFE9FFFE0EDBCFEAFFEF50126E136A98
:102BD00013501118E8AE02D0113404D01050125C1A
:102BE0001150135822E3FD0EDBCFE9FFFE0EDBCFC1
:102BF000EAFF030EE926000EEA22DE50E924E96E20
:102C0000DD50EA20EA6EEF50E66EDECFE9FFDDCF61
:102C1000EAFF600EE926000EEA22E552E750EF6E69
:102C2000DF2A010EC8E3DB2AC6D7FD0EDBCFE9FFA2
:102C3000FE0EDBCFEAFFEF28E66E600EE66E000EBA
:102C4000E66EE8EC1AF0E552E552E552020EE15C60
:102C500002E2E16AE552E16EE552E7CFD9FF1200E8
:102C60000001010E606F040E616F050E626F0101BD
:102C700041510BE1030EE66E600EE66E000EE66E4D
:102C8000E8EC1AF0E552E552E55212000001010E9F
:102C9000606F030E616F020E626F010141510BE123
:102CA000030EE66E600EE66E000EE66EE8EC1AF0BD
:082CB000E552E552E552120065
:082CB800D9CFE6FFE1CFD9FFFF
:102CC000FD0EDBCFE9FFFE0EDBCFEAFF030EE926A8
:102CD000000EEA22E9CF10F0EACF11F0FD0EDBCFB3
:102CE000E9FFFE0EDBCFEAFF020EE926000EEA2224
:102CF000EF501024E96E000E1120EA6EFC0EDBCFBF
:102D0000EFFFFD0EDBCFE9FFFE0EDBCFEAFFEFCFDB
:102D100010F0FD0EDBCFE9FFFE0EDBCFEAFF020E67
:102D2000E926000EEA22EF281014E66EFD0EDBCF36
:102D3000E9FFFE0EDBCFEAFF020EE926000EEA22D3
:102D4000E552E750EF6EFD0EDBCFE9FFFE0EDBCF65
:102D5000EAFF230EE926000EEA22EF6AE552E7CFEA
:102D6000D9FF1200D9CFE6FFE1CFD9FFE652FD0E21
:102D7000DBCFE6FFFE0EDBCFE6FFF5D8E552E552EE
:102D8000000902E1000E5DD0FD0EDBCFE9FFFE0E73
:102D9000DBCFEAFF030EE926000EEA22E9CF10F0AE
:102DA000EACF11F0FD0EDBCFE9FFFE0EDBCFEAFF2D
:102DB000EE52EF500F011024E96E000E1120EA6E62
:102DC000EFCFDFFFFD0EDBCFE9FFFE0EDBCFEAFF2B
:102DD000EFCF10F0FD0EDBCFE9FFFE0EDBCFEAFFF9
:102DE000EE52EF281014E66EFD0EDBCFE9FFFE0E6B
:102DF000DBCFEAFFEE52E552E750EF6EFD0EDBCF80
:102E0000E9FFFE0EDBCFEAFFEE52EFCF10F0FD0E32
:102E1000DBCFE9FFFE0EDBCFEAFF020EE926000E54
:102E2000EA22EF50105C0CE1FD0EDBCFE9FFFE0E55
:102E3000DBCFEAFF230EE926000EEA22010EEF6E39
:102E4000DF50E552E552E7CFD9FF1200D9CFE6FFB8
:102E5000E1CFD9FFE652FD0EDBCFE6FFFE0EDBCF62
:102E6000E6FF81D8E552E552DF6EFC0EDB50D880DC
:102E7000DF5403E2FC0EDB50DF6EFD0EDBCFE9FF1B
:102E8000FE0EDBCFEAFFEFCF10F0FD0EDBCFE9FF48
:102E9000FE0EDBCFEAFFEE52EF50DF241014E66E99
:102EA000FD0EDBCFE9FFFE0EDBCFEAFFEE52E5526F
:102EB000E750EF6EFD0EDBCFE9FFFE0EDBCFEAFF42
:102EC000EE52EFCF10F0FD0EDBCFE9FFFE0EDBCFB1
:102ED000EAFF020EE926000EEA22EF50105C0CE138
:102EE000FD0EDBCFE9FFFE0EDBCFEAFF230EE92666
:102EF000000EEA22010EEF6EE552E552E7CFD9FF50
:102F00001200D9CFE6FFE1CFD9FFE652FD0EDBCFAD
:102F1000E9FFFE0EDBCFEAFFEFCF10F0FC0EDBCFB8
:102F2000E6FFFD0EDBCFE9FFFE0EDBCFEAFFEE5240
:102F3000EF50E552E7241014DF6EFD0EDBCFE9FF02
:102F4000FE0EDBCFEAFF030EE926000EEA22DF5079
:102F5000E924E96E000EEA20EA6EEF50E552E552F0
:102F6000E7CFD9FF1200D9CFE6FFE1CFD9FFFD0EA1
:102F7000DBCFE9FFFE0EDBCFEAFFEF28136EE66E34
:102F8000FD0EDBCFE6FFFE0EDBCFE6FF30D8E552CD
:102F9000E552E552E7CF13F0000902E1000E01D03F
:102FA000010E1302F3CF12F0FD0EDBCFE9FFFE0E90
:102FB000DBCFEAFFEFCF11F0FD0EDBCFE9FFFE0E16
:102FC000DBCFEAFF020EE926000EEA22EFCF10F077
:102FD000FD0EDBCFE9FFFE0EDBCFEAFFEE52EF5036
:102FE000105C1114F324E552E7CFD9FF1200D9CFBA
:102FF000E6FFE1CFD9FFFD0EDBCFE9FFFE0EDBCF11
:10300000EAFFEE52EFCF10F0FD0EDBCFE9FFFE0E30
:10301000DBCFEAFF020EE926000EEA22EF50105C39
:103020000CE1FD0EDBCFE9FFFE0EDBCFEAFF230E46
:10303000E926000EEA22EF5002E0000E01D0010E58
:10304000E552E7CFD9FF1200D9CFE6FFE1CFD9FF94
:10305000FD0EDBCFE9FFFE0EDBCFEAFFEE52EFCF36
:1030600010F0FD0EDBCFE9FFFE0EDBCFEAFF020E14
:10307000E926000EEA22EF50105C0CE1FD0EDBCFDA
:10308000E9FFFE0EDBCFEAFF230EE926000EEA225F
:10309000EF5002E1000E01D0010EE552E7CFD9FF5B
:1030A0001200D9CFE6FFE1CFD9FFFD0EDBCFE9FF5C
:1030B000FE0EDBCFEAFFEF28136EFD0EDBCFE9FF3C
:1030C000FE0EDBCFEAFF230EE926000EEA22EF50C8
:1030D00002E1000E01D0010E1302FD0EDBCFE9FF6D
:1030E000FE0EDBCFEAFFEFCF11F0FD0EDBCFE9FFE5
:1030F000FE0EDBCFEAFFEE52EFCF10F0FD0EDBCF7E
:10310000E9FFFE0EDBCFEAFF020EE926000EEA22FF
:10311000EF50105C1114F324E552E7CFD9FF1200F1
:10312000D9CFE6FFE1CFD9FFFD0EDBCFE9FFFE0EE1
:10313000DBCFEAFFEFCF10F0FB0EDBCFE6FFFC0E9C
:10314000DB50E552E75C1014E552E7CFD9FF1200DF
:10315000D9CFE6FFE1CFD9FF020EE126DE6ADD6AB4
:10316000DECF10F0DDCF11F0F90EDB50000111AE13
:1031700002D0D89003D0105C000E11583DE2FD0E35
:10318000DBCFE9FFFE0EDBCFEAFF030EE926000EE0
:10319000EA22E9CF12F0EACF13F0FA0EDB50186EF4
:1031A000196ADE501824166EDD501920FD0EDBCF93
:1031B000E9FFFE0EDBCFEAFFEF501614146E156A1E
:1031C00012501424E96E13501520EA6EEF50E66E8B
:1031D000FB0EDBCF10F0FC0EDBCF11F0DE50102425
:1031E000E96EDD501120EA6EE552E750EF6EDF2AFE
:1031F000010EB6E3DB2AB4D7020EE15C02E2E16A1B
:10320000E552E16EE552E7CFD9FF1200D9CFE6FFD4
:10321000E1CFD9FF020EE126FC0EDB50DE6EDD6A47
:10322000FD0EDBCFE9FFFE0EDBCFEAFFEFCF12F0A2
:10323000FB0EDBCFE6FFFD0EDBCFE9FFFE0EDBCFA3
:10324000EAFF020EE926000EEA22EF50E552D8808E
:10325000E7541214116AE850DF1803E11150DE52EE
:10326000DD1866E0FD0EDBCFE9FFFE0EDBCFEAFFE7
:10327000030EE926000EEA22E9CF14F0EACF15F09A
:10328000FB0EDB50E76E000EDFCF18F0010EDBCF38
:1032900019F0E7501826000E1922FD0EDBCFE9FFCA
:1032A000FE0EDBCFEAFFEF5000011814166E176A0E
:1032B00014501624E96E15501720EA6EEF50E66E92
:1032C000FD0EDBCFE9FFFE0EDBCFEAFF030EE926A2
:1032D000000EEA22E9CF10F0EACF11F0FD0EDBCFAD
:1032E000E9FFFE0EDBCFEAFFEF50126E136A000E0D
:1032F000DFCF08F0010EDBCF09F012C00DF013C0D4
:103300000EF016EC1DF013AE04D0046C051E000E7A
:10331000052210500424E96E11500520EA6EE55292
:10332000E750EF6EDF2A010E01E27AD7DB2A78D769
:10333000FD0EDBCFE9FFFE0EDBCFEAFFEF50E76EBD
:10334000000EDFCF10F0010EE7501016116AFD0ECF
:10335000DBCFE9FFFE0EDBCFEAFF020EE926000E0F
:10336000EA2210C0EFFFFD0EDBCFE9FFFE0EDBCF40
:10337000EAFFEE52EFCF10F0FD0EDBCFE9FFFE0EBD
:10338000DBCFEAFF020EE926000EEA22EF50105CC6
:103390000CE1FD0EDBCFE9FFFE0EDBCFEAFF230ED3
:1033A000E926000EEA22010EEF6E020EE15C02E257
:1033B000E16AE552E16EE552E7CFD9FF1200D9CFBD
:1033C000E6FFE1CFD9FFFD0EDBCFE9FFFE0EDBCF3D
:1033D000EAFF020EE926000EEA22EF50E66EFD0E2D
:1033E000DBCFE9FFFE0EDBCFEAFFEE52E552E750FE
:1033F000EF6EFD0EDBCFE9FFFE0EDBCFEAFF230E03
:10340000E926000EEA22010EEF6EE552E7CFD9FF62
:023410001200A8
:0E341200020140511F0B010801E01200405161
:10342000600BE842E842E842E842E842010801E075
:103430001200445103E0440501E012004151220A08
:1034400031E0030A24E0010A15E0210A0DE0010A37
:1034500001E012000001510EE36F010EE46F080E4F
:10346000E66FE76BE58121D00001510EE36F010E9D
:10347000E46F1BD046C2EBF047C2ECF00001D80E5F
:10348000E86F020EE96FED6BEE6BEA8F1200000140
:10349000D80EE36F020EE46F070EE66FE76BC10E06
:1034A000E56F120042C24CF10001E58F12000201EB
:1034B000D86B4B0ED96FDA6BDB6BDC6BDD6B080EF8
:1034C000DE6F0101416B406B1A0EE66E020EE66E76
:1034D000FDEC0EF0E552E5521E0EE66E030EE66EB2
:1034E000FDEC0EF0E552E552400EE66E580EE66E2B
:1034F000020EE66EE66A030EE66EA1EC0FF0106EA9
:10350000050EE15E1050F3CF48F1F4CF49F101010F
:103510004A6B4B6B1200D9CFE6FFE1CFD9FF010117
:10352000406B4851491102E1000E08D048C1E9FF43
:1035300049C1EAFFEF50800B01E0010E000942E1B2
:10354000FC0EDBCF10F048C1E9FF49C1EAFFEE52A3
:10355000EF50D880105408E248C1E9FF49C1EAFFA2
:10356000EE52FC0EEFCFDBFF406BFC0EDB50405DFC
:1035700016E24051EA6A580FE96E020EEA22EF5055
:10358000E66EFD0EDBCFE6FFFE0EDBCFE6FF5CEC6A
:1035900016F0E552E552E5520101402BE6D7400E08
:1035A000E66E580EE66E020EE66EE66A030EE66EF4
:1035B000A1EC0FF0106E050EE15E1050F3CF48F154
:1035C000F4CF49F101014051E552E7CFD9FF120094
:1035D000D9CFE6FFE1CFD9FFA094010141510CE121
:1035E000FD0EDBCF42F1FE0EDBCF43F1FC0EDBCF55
:1035F00046F1010E476F416FA084E552E7CFD9FF36
:103600001200D9CFE6FFE1CFD9FF030EE126A09447
:10361000010141512DE1DF6AFD0EDBCF08F0FE0E06
:10362000DBCF09F0DE5208C0DEFF09C0DDFFDD524E
:10363000DF2ADF50106E116AFF0E101802E11150E0
:103640000BE0010EDBCFE9FFDB2A020EDBCFEAFF46
:1036500001E3DB2AEF50ECE1FD0EDBCF42F1FE0E81
:10366000DBCF43F1DFCF46F10101010E476F416F20
:10367000A084030EE15C02E2E16AE552E16EE552EC
:10368000E7CFD9FF1200D9CFE6FFE1CFD9FF030E74
:10369000E126A094010141512EE1DF6AFD0EDBCF4E
:1036A00008F0FE0EDBCF09F0DE5208C0DEFF09C0D5
:1036B000DDFFDD52DF2ADF50106E116AFF0E101899
:1036C00002E111500CE0010EDBCFF6FFDB2A020E07
:1036D000DBCFF7FF01E3DB2A0800F550EBE1FD0E3D
:1036E000DBCF42F1FE0EDBCF43F1DFCF46F101012C
:1036F000476B010E416FA084030EE15C02E2E16AB8
:10370000E552E16EE552E7CFD9FF1200D9CFE6FFCF
:10371000E1CFD9FF020EE126A09401014A514B11DD
:1037200002E1000E08D04AC1E9FF4BC1EAFFEF50A9
:10373000800B01E0010E000906E1030E415D01E18D
:10374000416B415102E1A0847ED0020E415D16E141
:10375000E66A000EE66EE66A010EE66E030EE66E9F
:10376000A1EC0FF0106E050EE15E1050F3CF4AF1A0
:10377000F4CF4BF10101030E416F64D0410562E1CA
:10378000400E106E116A4651105C000E115803E293
:10379000400EDF6E02D046C1DFFFDF50465D466F50
:1037A000980E446F020E456F010EDFCFDBFF4751CD
:1037B00016E1010EDB5028E042C1F6FF43C1F7FFDE
:1037C0000800F55044C1E9FF45C1EAFFEF6E442B04
:1037D000000E4523422B4323010EDB06EAD7010EE0
:1037E000DB5012E042C1E9FF43C1EAFFEF5044C1A0
:1037F000E9FF45C1EAFFEF6E442B000E4523422B43
:103800004323010EDB06EBD70101465107E1400ED1
:10381000DF5C02E1020E01D0030E416FDFCFE6FF55
:10382000980EE66E020EE66E010EE66E030EE66E72
:10383000A1EC0FF0106E050EE15E1050F3CF4AF1CF
:10384000F4CF4BF1A084020EE15C02E2E16AE552A2
:0A385000E16EE552E7CFD9FF120048
:06385A002A0EF66E100EAE
:10386000F76E000EF86E01010900F5506F6F090048
:10387000F550706F03E16F6701D03DD00900F5503E
:103880006A6F0900F5506B6F0900F5506C6F090005
:103890000900F550E96E0900F550EA6E09000900CB
:1038A0000900F5506D6F0900F5506E6F09000900B1
:1038B000F6CF71F1F7CF72F1F8CF73F16AC1F6FF6D
:1038C0006BC1F7FF6CC1F8FF01016D5302E16E534C
:1038D00007E00900F550EE6E6D07F8E26E07F9D7C4
:1038E00071C1F6FF72C1F7FF73C1F8FF01016F07E5
:0838F000000E705BBFD712004F
:0838F8001201000202000008A9
:10390000D8040A000001010200010902430002017B
:1039100000C0320904000001020201000524001069
:103920000104240202052406000105240100010708
:1039300005820308000209040100020A00000007D2
:10394000050302400000070583024000000403094C
:103950000434034D006900630072006F0063006867
:103960000069007000200054006500630068006E6C
:10397000006F006C006F0067007900200049006E46
:103980000063002E00080375004C0049000A394D01
:053990003951398539B1
:0A399600AC94B8960B0EAF6E7E6A7B
:1039A0007F6A938A939E939C8A9CAC98AB8EAC8CD6
:1039B000AB8CAB86AB88AC8A1200D9CFE6FFE1CFE7
:1039C000D9FFFD0EDB50E8B0AC80E8A0AC90FC0E57
:1039D000DB50AD6EE552E7CFD9FF12009E50200BB1
:1039E00001E0010E1200D9CFE6FFE1CFD9FF020EB0
:1039F000E126AB50010BE76E010EE7CFDBFFAE50C7
:103A0000DF6EABB2AB989E9ADECF10F0DDCF11F037
:103A100010C0F3FF11C0F4FF020EE15C02E2E16AA4
:0C3A2000E552E16EE552E7CFD9FF12003D
:043A2C00006A0EAE70
:103A30001FEF1DF00D6C0E1EE86A0E22001E09AE6F
:103A400027EF1DF0086C091EE86A0922001E56ECDB
:103A50001DF009BE37EF1DF000AE000C086C091E0A
:103A6000E86A0922046C051EE86A0522000C00BE03
:083A70002EEF1DF00188FF0C90
:083A7800FE0EE3CFE9FFFF0E93
:103A8000E3CFEAFFE9CFF3FFEACFF4FFFB0EE35009
:103A900003E1FC0EE35009E0FB0EE30602E2FC0E3C
:0C3AA000E306FD0EE350EE6EF1D71200BD
:043AAC00056A046A39
:103AB000100EE76ED89008360936043605360D50DC
:103AC000045C0E50055805E30D50045E0E50055A77
:083AD000082AE72EF0D71200CE
:083AD800000EF36E00EE00F099
:103AE000030E01D81200EA6002D0EE6AFCD7F35050
:083AF000E9601200EE6AFCD748
:083AF80011EE00F021EE00F0D8
:103B0000F86A019C2DEC1CF08AEC1DF007EC11F01A
:043B1000FBD71200CD
:023B140012009D
:0A3B160000000000000000000000A5
:073B2000000000000000009E
:020000040030CA
:0100000020DF
:0100010032CC
:010002000EEF
:010003001EDE
:01000500807A
:010006008D6C
:0100080003F4
:01000900C036
:01000A0003F2
:01000B00E014
:01000C0003F0
:01000D0040B2
:00000001FF
