:020000040000FA
:06000000CDEF18F0120024
:060008008AEF08F012006F
:06001800DDEF08F012000C
:0E0020000100B8310000960000002A00000028
:02002E00D9CF28
:10003000E6FFE1CFD9FFE652A0940F015F6B626A41
:10004000160E616E9F0E5B6F7B0E606E648C5C6B38
:10005000030EE66EE66AE66A540EE66E0F0EE66E74
:100060008DEC18F0106E050EE15E1050649CDF6A96
:10007000DF50106E116A100E105C000E115810E265
:10008000DF50040DF3CFE9FFF4CFEAFF000EE926BD
:10009000020EEA22EE6AEE6AEE6AEE6ADF2AE8D71C
:1000A0000F01160E536F62A602D06296FCD70001B4
:1000B0007B6B806B816B826B6498DF6A040EDF5C04
:1000C00018E2EA6ADF34FE0BEA36E96E6F0EE926C3
:1000D000000EEA22EE6AED6AEA6ADF34FE0BEA36C7
:1000E000E96E670EE926000EEA22EE6AED6ADF2A63
:1000F000E5D70001080E6F6F020E706F616B606BC9
:10010000E552E552E7CFD9FF1200D9CFE6FFE1CFA4
:10011000D9FFE6520001600507E164BA05D0626AC2
:1001200060806088020E606F6250040B05E06050D2
:10013000040B02E06294B9D864B260D06250010B43
:1001400016E06050010B13E072DFD08EA284A08411
:10015000F28E0001040E606F0201400E026F020E6B
:10016000036F080E016F006B8C0E001362906250DB
:10017000100B05E06050100B02E085D862986250C9
:10018000400B13E06050400B10E0010EE66EE66A93
:10019000000EE66EE66A730EE66EE66AB1EC09F0F2
:1001A000106E060EE15E1050629C6250200B04E05F
:1001B0006050200B01E04DD86250020B14E06050FB
:1001C000020B11E0010EE66EE66A000EE66EE66ACC
:1001D000E6687F0EE66EB1EC09F0106E060EE15E89
:1001E00010500F015F6B040E0001E76E6019E8AE5E
:1001F00002D0E73402D0E750605D02E2A19424D03F
:1002000060A621D0DF6A040EDF5C1DE262A61BD06F
:1002100063CF88F06296780E0001881502E15AD803
:1002200010D0000EE66EE66A880EE66E000EE66EF0
:10023000720EE66EE66AB1EC09F0106E060EE15E33
:100240001050DF2AE0D7A194E552E552E7CFD9FF5D
:1002500012000F0153A115D063C0E9FF64C0EAFF8B
:10026000EF5080080DE16FC0E9FF70C0EAFFEF506A
:10027000840806E163C0E9FF64C0EAFF8C0EEF6EFC
:100280005391629A1200608462986482000EE66E56
:10029000E66AE66EE66A750EE66EE66AB1EC09F0AD
:1002A000106E060EE15E10501200000EE66EE66A59
:1002B000E66EE66A740EE66EE66AB1EC09F0106E60
:1002C000060EE15E10506492609462A402D06294C3
:1002D000FCD71200D9CFE6FFE1CFD9FFE652FD0EE1
:1002E000000188155AE17E0E8815E8407F0B040D49
:1002F000F3CF63F0F4CF64F0000E6327020E6423A3
:1003000063C065F064C066F0657563C0E9FF64C0F2
:10031000EAFFEF503C0BE842E8420D083CE163C0C5
:10032000E9FF64C0EAFF020EE926000EEA22EECFE2
:1003300010F0EFCF11F0480E10182BE1020E11183B
:1003400028E163C0E9FF64C0EAFF020EE926000E5F
:10035000EA22400EEE6E020EED6EDF6ADF50106E86
:10036000116A080E105C000E115813E2DF50EA6AA1
:10037000480FE96E020EEA22EF50E66EDF50EA6A9D
:10038000400FE96E020EEA22E552E750EF6EDF2AD7
:10039000E5D70DD807D02ED805D0FD0E8815040856
:1003A00001E14ED8E552E552E7CFD9FF12006FC008
:1003B000E9FF70C0EAFFEF50800B05E06FC0E9FF76
:1003C00070C0EAFFEF6A0001776B786B7C6B7D6B26
:1003D0007B6BB5D8000EE66EE66AE66EE66A030E43
:1003E000E66EE66AB1EC09F0106E060EE15E1050A2
:1003F00034EF04F0020E0001785D02E18FEF05F0AA
:100400006CD8000189511AE165C0E9FF66C0EAFFB6
:10041000EE52080EEF6E65C0E9FF66C0EAFF020EFD
:10042000E926000EEA22400EEE6E020EED6E65C069
:10043000E9FF66C0EAFF8C0EEF6E1200896B1200B6
:10044000D9CFE6FFE1CFD9FFE6526FC0E9FF70C018
:10045000EAFFEF50400B01E0010EDF6E00016F7507
:10046000080E605D0CE142C25CFF0F015C510008A8
:1004700003E20001100E02D00001040E606F780547
:1004800026E16FC0E9FF70C0EAFF020EE926000E08
:10049000EA22480EEE6E020EED6EB8DA020E000190
:1004A000775D06E16FC0E9FF70C0EAFF840E0DD0F2
:1004B000DF5006E16FC0E9FF70C0EAFFC80E05D04B
:1004C0006FC0E9FF70C0EAFF880EEF6E01D005D85B
:1004D000E552E552E7CFD9FF1200D9CFE6FFE1CFD1
:1004E000D9FF020EE1260001786B6FC0E9FF70C0F2
:1004F000EAFFEF6A040E6F19106E70C011F0DE6E25
:1005000070C0DDFFDECFE9FFDDCFEAFFEF6A80AF2D
:100510000CD08351841107E005D084C0FAFF00019C
:100520008351F96EFADF0001809F020EE15C02E266
:10053000E16AE552E16EE552E7CFD9FF1200020110
:100540004051600BE842E842E842E842E8420009D4
:1005500001E0120041510C0A50E00B0A3FE00C0A86
:1005600031E0010A22E00B0A1EE0020A1CE0030A45
:1005700018E0080A10E0010A0CE00F0A08E0030A7C
:1005800001E0120000017B8F080E606F120083EF04
:1005900003F02BEF06F00001610E796F000E7A6F09
:1005A0000CD0DAEF03F0FEEF02F044510001796F56
:1005B0007A6B620E7927000E7A237B81010E7C6FA5
:1005C0007B8F120000017B8F02014451EA6A620FA7
:1005D000E96E000EEA2242C2EFFF1200000EE66E44
:1005E000E66AE66EE66A020EE66EE66AB1EC09F0CD
:1005F000106E060EE15E105012001200D9CFE6FF19
:10060000E1CFD9FF040EE1260201420510E140517D
:100610001F0B00090CE100017B8F030E0201415DFD
:1006200004E10001010E876F02D00001876B020117
:1006300042515FE140511F0B02085BE144510F0B37
:10064000000957E000017B8F020144BF0BD04451E9
:100650000F0BE96EEA6AD890E936EA36670EE926AA
:10066000000E0AD044510F0BE96EEA6AD890E936C1
:10067000EA366F0EE926000EEA22EECFDEFFEDCF5E
:10068000DDFF030E415D06E1DECFE9FFDDCFEAFFCE
:10069000840E2ED044510F0B116A530F106E0F0EA3
:1006A0001122020E10C0DBFF030E11C0DBFF020E91
:1006B000DBCFE9FF030EDBCFEAFFEF9044AF0CD0B6
:1006C000DECFE9FFDDCFEAFFEF6ADF74DECFE9FFBF
:1006D000DDCFEAFF400E0CD0DECFE9FFDDCFEAFF31
:1006E000880EEF6EDF74DECFE9FFDDCFEAFFC80EC4
:1006F000EF6E040EE15C02E2E16AE552E16EE55262
:10070000E7CFD9FF1200800E0201405D52E10001E7
:10071000C00E7B6F02014351030A29E0010A09E080
:10072000030A45E10001D60E796F2F0E7A6F120E83
:1007300038D04251F66EF76AD890F636F7366B0E1F
:10074000F626300EF7220900F5CF79F00A00F5CF32
:100750007AF0020E0001F76A7925F66E7A51F722D7
:100760000900F5CF7CF00A00F5CF7DF01200030EF2
:10077000425D1AE24251F66EF76AD890F636F736C5
:100780006D0EF626300EF7220900F5CF79F00A003B
:10079000F5CF7AF079C0F6FF7AC0F7FF0800F55080
:1007A00000017C6F7D6B120000017B6B1200000169
:1007B0007B6B1200D9CFE6FFE1CFD9FF020EE12615
:1007C0000201486B496B40511F0B020A11E0030AFA
:1007D0000CE0010A35E100017B8F02014881000134
:1007E00087052EE1020148832BD000017B8F28D0A2
:1007F00000017B8F020144BF0BD044510F0BE96E07
:10080000EA6AD890E936EA36670EE926000E0AD081
:1008100044510F0BE96EEA6AD890E936EA366F0E5A
:10082000E926000EEA22EECFDEFFEDCFDDFFDECFC0
:10083000E9FFDDCFEAFFEF50040B02E0010E486F45
:1008400000017BAF07D0480E796F020E7A6F7B8173
:10085000020E7C6F020EE15C02E2E16AE552E16E9B
:10086000E552E7CFD9FF1200649800017BBF47D063
:1008700080AF26D0020E786F6FC0E9FF70C0EAFF2C
:10088000EE52EF6A6FC0E9FF70C0EAFFC80EEF6E6C
:1008900065C0E9FF66C0EAFFEE52080EEF6E65C064
:1008A000E9FF66C0EAFF020EE926000EEA22480EC2
:1008B000EE6E020EED6E65C0E9FF66C0EAFF7AD00B
:1008C00065C0E9FF66C0EAFFEE52080EEF6E65C034
:1008D000E9FF66C0EAFF020EE926000EEA22400E9A
:1008E000EE6E020EED6E65C0E9FF66C0EAFF8C0E8B
:1008F000EF6E6FC0E9FF70C0EAFF840E5CD080BF6E
:1009000084D0020140AF59D000017C510201465D04
:1009100000017D510201475904E246C27CF047C202
:100920007DF074D80001010E786F65C0E9FF66C0E4
:10093000EAFFEE52080EEF6E65C0E9FF66C0EAFFFF
:10094000020EE926000EEA22400EEE6E020EED6E59
:1009500065C0E9FF66C0EAFF800EEF6E896B63C079
:10096000E9FF64C0EAFFEE52080EEF6E63C0E9FFD4
:1009700064C0EAFF020EE926000EEA22400EEE6E87
:10098000020EED6E63C0E9FF64C0EAFF840EEF6EF5
:10099000010E896F6FC0E9FF70C0EAFF020EE92601
:1009A000000EEA22480EEE6E020EED6E6FC0E9FFF9
:1009B00070C0EAFFC80EEF6E12000001020E786FE1
:1009C0006FC0E9FF70C0EAFFEE52EF6A6FC0E9FF47
:1009D00070C0EAFFC80EEF6E65C0E9FF66C0EAFFAF
:1009E000EE52080EEF6E65C0E9FF66C0EAFF020E28
:1009F000E926000EEA22480EEE6E020EED6E65C08C
:100A0000E9FF66C0EAFFC80EEF6E1200D9CFE6FF1D
:100A1000E1CFD9FF020EE1260001080E7C5D000E39
:100A20007D590DE27CC0DEFF7DC0DDFF775102E124
:100A3000010E03D0770506E1020E776F03D0080E92
:100A4000DE6EDD6A6FC0E9FF70C0EAFFEF926FC033
:100A5000E9FF70C0EAFFEF906FC0E9FF70C0EAFFE6
:100A6000010EDB50EF126FC0E9FF70C0EAFFEE52DB
:100A7000DFCFEFFF000EDB507C5F010EDB507D5BB4
:100A8000480E856F020E866F7BB120D0D9CFE9FF6B
:100A9000DACFEAFFEE50ED1038E079C0F6FF7AC009
:100AA000F7FF792B000E7A230800F550E66E85C01B
:100AB000E9FF86C0EAFF852B000E8623E552E7504A
:100AC000EF6EDF06010EE2E2DB06E0D7D9CFE9FFE9
:100AD000DACFEAFFEE50ED1018E079C0E9FF7AC0F6
:100AE000EAFF792B000E7A23EF50E66E85C0E9FF0E
:100AF00086C0EAFF852B000E8623E552E750EF6E95
:100B0000DF06010EE3E2DB06E1D7020EE15C02E262
:100B1000E16AE552E16EE552E7CFD9FF1200D9CF85
:100B2000E6FFE1CFD9FF020EE12663C0E9FF64C012
:100B3000EAFFEE52EFCFDFFFDFCF10F010500001E1
:100B4000815D000E825902E281C0DFFFDF50106E2E
:100B5000116AE850815D816F11508259826F010ED8
:100B6000DB6ADF50F36E010EDBCFF4FFF350F45C71
:100B700016E2010EDB50EA6A480FE96E020EEA2225
:100B8000EF50E66E7EC0E9FF7FC0EAFF7E2B000ECD
:100B90007F23E552E750EF6E010EDB2AE2D7000E0D
:100BA000D8808155000E825527E265C0E9FF66C0F6
:100BB000EAFFEE52080EEF6E65C0E9FF66C0EAFF7D
:100BC000020EE926000EEA22480EEE6E020EED6ECF
:100BD00063C0E9FF64C0EAFFEF50400B06E165C067
:100BE000E9FF66C0EAFFC80E05D065C0E9FF66C030
:100BF000EAFF880EEF6E25D065C0E9FF66C0EAFF08
:100C0000EE52080EEF6E65C0E9FF66C0EAFF020E05
:100C1000E926000EEA22400EEE6E020EED6E65C071
:100C2000E9FF66C0EAFF840EEF6E8351841107E08E
:100C300005D084C0FAFF00018351F96EFADF00018C
:100C4000809F020EE15C02E2E16AE552E16EE5524C
:100C5000E7CFD9FF1200D9CFE6FFE1CFD9FFE652A7
:100C600000017B8F030EE66EE66AE66A540EE66EBE
:100C70000F0EE66E8DEC18F0106E050EE15E105052
:100C8000DF6ADF50106E116A100E105C000E1158F2
:100C900010E2DF50040DF3CFE9FFF4CFEAFF000EBE
:100CA000E926020EEA22EE6AEE6AEE6AEE6ADF2AB0
:100CB000E8D7648C010EE66EE66AE66A620EE66EBE
:100CC000000EE66E8DEC18F0106E050EE15E105011
:100CD000649C0001080E6F6F020E706F000E636F50
:100CE000020E646F63C065F0666F42C261F06151CD
:100CF00002E1100E12D0010EE66EE66A610EE66E9B
:100D0000000EE66E010EE66EE66AB1EC09F0106EBA
:100D1000060EE15E10500001200E606FE552E552B4
:100D2000E7CFD9FF1200D9CFE6FFE1CFD9FF020EFE
:100D3000E126000EDE6E020EDD6EFD0EDB50E824B5
:100D4000126EFE0EDB50040DF3501224040DF3500E
:100D5000106E116A020E0F0B05E0D890113210329E
:100D6000E806FBE1D89010361136D89010361136CF
:100D7000D9CFE9FFDACFEAFF1050EE261150ED226D
:100D8000DECFE9FFDDCFEAFFEF9EFD0EDB500AE18B
:100D9000FE0EEA6ADB34FE0BEA36E96E670EE926E0
:100DA000000E09D0FE0EEA6ADB34FE0BEA36E96E6D
:100DB0006F0EE926000EEA22DECFEEFFDDCFEDFF5B
:100DC000DECFE9FFDDCFEAFFEF9CDECFE9FFDDCF2D
:100DD000EAFF040EE926000EEA22EF8C020EE15C27
:100DE00002E2E16AE552E16EE552E7CFD9FF120077
:100DF000D9CFE6FFE1CFD9FF020EE126FE0EDB5090
:100E0000116A530F106E0F0E112210C0DEFF11C0B9
:100E1000DDFFDECFE9FFDDCFEAFFFD0EDBCFEFFF29
:100E2000DBA407D0E66AFE0EDBCFE6FF7CDFE552EF
:100E3000E552FD0EDBA208D0010EE66EFE0EDBCF02
:100E4000E6FF71DFE552E552020EE15C02E2E16A83
:100E5000E552E16EE552E7CFD9FF1200D9CFE6FFA8
:100E6000E1CFD9FF020EE126FE0EDB5020E165C086
:100E7000E9FF66C0EAFFEE52080EEF6E65C0E9FFBB
:100E800066C0EAFF020EE926000EEA22400EEE6E70
:100E9000020EED6E65C0E9FF66C0EAFF8C0EEF6ED4
:100EA0006FC0E9FF70C0EAFF840EEF6E3BD0FD0E0D
:100EB000DB50E824126EFE0EDB50040DF3501224BA
:100EC000040DF3CF10F0F4CF11F0000E1026020E37
:100ED000112210C0DEFF11C0DDFF840EDECFE9FF5E
:100EE000DDCFEAFFE850EF12FD0EDB50E824126E72
:100EF000FE0EDB50040DF3501224010F040DF3CF4E
:100F000010F0F4CF11F0000E1026020E112210C0C6
:100F1000DEFF11C0DDFF840EDECFE9FFDDCFEAFF8B
:100F2000E850EF12020EE15C02E2E16AE552E16E86
:100F3000E552E7CFD9FF1200D9CFE6FFE1CFD9FFC5
:100F4000020EE126FD0EDB500AE0FE0EEA6ADB34FB
:100F5000FE0BEA36E96E6F0EE926000E09D0FE0E92
:100F6000EA6ADB34FE0BEA36E96E670EE926000E0C
:100F7000EA22EECFDEFFEDCFDDFFD9CFE9FFDACFFA
:100F8000EAFFEE50ED1003E1F36AF46A44D0DECFDD
:100F9000E9FFDDCFEAFF020EE926000EEA22FB0E92
:100FA000DBCFEEFFFC0EDBCFEDFFDECFE9FFDDCFC9
:100FB000EAFFEE52FA0EDBCFEFFF400EDECFE9FF85
:100FC000DDCFEAFFE850EF16880EDECFE9FFDDCF78
:100FD000EAFFE850EF12FD0EDB500AE0FE0EEA6A6F
:100FE000DB34FE0BEA36E96E6F0EE926000E09D0FF
:100FF000FE0EEA6ADB34FE0BEA36E96E670EE9267E
:10100000000EEA22EF74DECF10F0DDCF11F010C039
:10101000F3FF11C0F4FF020EE15C02E2E16AE55267
:10102000E16EE552E7CFD9FF1200D9CFE6FFE1CF5D
:10103000D9FF64A84ED0FE0EEA6ADB34FE0BEA3616
:10104000E96E6F0EE926000EEA22EE50EFCFEAFFBE
:10105000E96E400EEE16EE6AEE6AEE6AFE0EEA6A7F
:10106000DB34FE0BEA36E96E6F0EE926000EEA224B
:10107000EE50EFCFEAFFE96EEE7CFE0EEA6ADB345B
:10108000FE0BEA36E96E6F0EE926000EEA22EF74D7
:10109000400E106EFE0EEA6ADB34FE0BEA36E96E95
:1010A0006F0EE926000EEA22EE50EFCFEAFFE96E5E
:1010B0001050EF16FE0EEA6ADB34FE0BEA36E96EDC
:1010C0006F0EE926000EEA22EE50EFCFEAFFE96E3E
:1010D000EF7CE552E7CFD9FF1200646A606A000135
:1010E000606B12000001605114E1646A606A160EC0
:1010F000616E0F019F0E5B6F7B0E606ED08EA284BF
:10110000A084F28E64B602D06486FCD70001010E82
:04111000606F1200FA
:0C111400DACFE4FFE2CFDAFFE9CFE4FF1E
:10112000EACFE4FFF6CFE4FFF7CFE4FFF5CFE4FF2B
:10113000F3CFE4FFF4CFE4FFFACFE4FF00EE00F0DA
:10114000100EE80403E3EECFE4FFFBD700EE10F04F
:101150000A0EE80403E3EECFE4FFFBD7E65285EC8A
:1011600000F09D50100B05E09E50100B02E0F1ECDA
:101170000EF0E55200EE19F00A0EE80403E3E5CFA5
:10118000EDFFFBD700EE0FF0100EE80403E3E5CF10
:10119000EDFFFBD7E5CFFAFFE5CFF4FFE5CFF3FF97
:1011A000E5CFF5FFE5CFF7FFE5CFF6FFE5CFEAFFA7
:1011B000E5CFE9FFE5CFDAFF1100D8CFE4FFE0CFBC
:1011C000E4FFE46EDACFE4FFE6529D50020B5FE0ED
:1011D0009E50020B5CE0640E00019C5D02E29C2BC1
:1011E0004ED09C6B0A0E975D01E2972B020E985D24
:1011F000000E995903E2982B000E9923280E9D5D4D
:10120000230E9E5903E29D2B000E9E23A75100083A
:1012100004E2A707A75101E18292A32B000EA423A9
:10122000A523E80EA35D030EA459000EA55906E3FD
:10123000A06BA16BA26BA36BA46BA56B0A0EA65D42
:1012400005E2A62B050EA65D01E18280AC2BAB5119
:10125000AC5D15E3AC6BAD2BAE51E824AD5D04E1A4
:10126000280EAB6F82940BD0AE51E824D880AD55D8
:1012700005E20F0EAB6FAD6B828401D082749B517F
:1012800005E0AC50020B02E08A9C9B6B9E92E552FB
:10129000E5CFDAFFE550E5CFE0FFE5CFD8FF10005E
:1012A0000DD80001605102E172EC08F0E5D803DBD3
:1012B000A4DA79EC10F09EEC16F0F3D70F0EC11201
:1012C00006D843EC10F017EC00F045EF17F00101E1
:1012D0001F0EB06FB16BB26B010ED36F1F0ED46FC8
:1012E000D56BD66B010EF76F7E6A7F6AF80E941687
:1012F000828082948282FC0ECA140309CA6E4B0E4D
:10130000CB6ECC6A9E929D829F92D08EF28EF28E90
:10131000F28CCA8412000001AF6B8282D40EE66E9A
:10132000010EE66EF7EC14F0E552E552B00EE66EF3
:10133000010EE66EF7EC14F0E552E55212000001E2
:10134000010EAF6F829212001200120021EF15F011
:1013500012006FEC15F00001010EAF6F82921200C7
:101360001200D9CFE6FFE1CFD9FFFD0EDBCF08F0A9
:10137000FE0EDBCF09F0720E081801E1095033E0D0
:10138000E868081802E17F0E09182BE0740E0818AF
:1013900001E1095024E0750E081801E109501DE033
:1013A000730E081801E1095016E0030E081801E158
:1013B00009500FE0020E081801E1095008E0010E83
:1013C000081801E1095001E010D0C3DF0FD0C0DFE1
:1013D0000DD0BCDF0BD0B8DF09D09DDF07D0AFDF69
:1013E00005D0B3DF03D0000001D000D0010E00D043
:1013F000E552E7CFD9FF1200D9CFE6FFE1CFD9FF01
:10140000040EE126DE6ADD6A020EDB6A030EDB6A89
:10141000020EDBCF10F0030EDBCF11F0FC0EDB5021
:10142000000111AE02D0D89003D0105C000E11580C
:1014300016E2020EDBCF10F0030EDBCF11F0FD0E33
:10144000DB501024E96EFE0EDB501120EA6EEF50E7
:10145000DF1A020EDB2A030EDBE3DB2AD9D7DF50CB
:10146000106E040EE15C02E2E16AE552E16E10509A
:10147000E552E7CFD9FF1200D9CFE6FFE1CFD9FF80
:10148000020EE1260101D6510001B45D14E0020E06
:10149000985D000E99590FE3B4C0D6F10101D55102
:1014A000D65D02E1010EF76F0001986B996BAB8678
:1014B000E1EC0FF098D1F40E9D5D010E9E5902E310
:1014C000A85105E0280E9D5D230E9E5929E39F51EA
:1014D00027E1010E9F6FD40EE66E010EE66EF7EC6B
:1014E00014F0E552E552B00EE66E010EE66EF7EC32
:1014F00014F0E552E5520101010E906F050E916F57
:10150000040E926F0201E0510BE1030EE66E900EA5
:10151000E66E010EE66E00EC16F0E552E552E5527D
:101520008A50400B01E05FD166EC17F0000901E141
:101530005AD10001986B996B6BEC17F007C0B1F0B2
:1015400008C0B2F009C0B3F009C010F0116A126A05
:1015500010AE02D01168126810500001A32711507C
:10156000A4231250A523B25104E1AB50080B01E0B3
:101570003AD1B25101E1DFD01F0EB115A95D04E0EF
:101580001F0EB11501E02FD1DF6A010EDB6A080ED4
:10159000DF5C18E20001B151DF5206E0DFCFF3FF5C
:1015A000E8327F0BF306FCE1010B0AE0010EDB5091
:1015B00002E0000E01D0010EE76E010EE7CFDBFF67
:1015C000DF2AE5D7010EDB5001E095D00A0E0001BD
:1015D000A65D02E38290A66BB4510101D65D09E0DD
:1015E000B4C0D6F1D551D65D02E1010EF76FE1EC42
:1015F0000FF00001B151E00BE838E840030B02089E
:1016000041E11F0EB115A95D3DE19F6BB0C0A8F08F
:10161000F40E9D5D010E9E5902E2AA5105E0AA5109
:1016200001E0AA6B9FEC0FF000019D6B9E6BB00E6A
:10163000E66E010EE66E47EC12F0E552E552106ED2
:10164000020E105C01E2CFD0B00EE66E010EE66E27
:1016500047EC12F0E552E552116E0101B151EA6A10
:10166000B30FE96E010EEA22EF500F0B020F115C6F
:1016700001E2B9D08A8CB1C1E6FF59EC10F0E55215
:10168000B0DBB1D0B151E00BE838E840030B36E1F4
:101690001F0EB115A95D32E1B00EE66E010EE66EC9
:1016A000E5EC12F0E552E552106E020E105C08E215
:1016B000B00EE66E010EE66EF7EC14F0E552E55260
:1016C000020E0101B15DB015B16FD36BE850EA6A4B
:1016D000B30FE96E010EEA22200EEF6EB129B015AC
:1016E000EA6AB30FE96E010EEA22200EEF6EB1C175
:1016F0009AF08A8C76DBB5EC0FF075D0AF5173E0C1
:10170000D40EE66E010EE66E8BEC12F0E552E55259
:10171000000969E1AB96D6C1B4F00001B56BB1C068
:10172000E6FFD40EE66E010EE66EF0EC10F0E55228
:10173000E552E55258D0D40EE66E010EE66E8BEC03
:1017400012F0E552E55200090CE0B4C0D6F1AB86C8
:101750000101D551D65D02E1010EF76FCBEC0FF020
:1017600042D0B1C0E6FFD40EE66E010EE66EF0EC9C
:1017700010F0E552E552E5520001B151B51BD6C15A
:10178000E6FFB4C0E6FFD40EE66E010EE66E03EC93
:1017900013F0E552E552E552E552106E0001B4290E
:1017A0000101D415EA6AD70FE96E010EEA22EF5063
:1017B0000F0B030F105C17E30001B5510AE0B4C032
:1017C000D6F10101D551D65D02E1010EF76FCDDBF7
:1017D00009D0B451E66EE66ABBEC10F0E552E55272
:1017E000D6C1B4F0AB86020EE15C02E2E16AE552DA
:1017F000E16EE552E7CFD9FF12000201E05101E0AE
:101800001200D40EE66E010EE66E47EC12F0E552C1
:10181000E552106E010E105C4DE3D40EE66E010E23
:10182000E66E47EC12F0E552E552116E0101D52942
:10183000D415EA6AD70FE96E010EEA22EF500F0BBA
:10184000030F115C37E3D529D415EA6AD70FE96E87
:10185000010EEA22EF500F0B030FE66ED5C1E6FF33
:10186000900EE66E010EE66ED40EE66E010EE66E8A
:101870001BEC13F0106E060EE15E10500F0E01010E
:101880009115020FE66E910EE66E010EE66E00EC0B
:1018900016F0E552E552E5520F0E01019115030FC6
:1018A000E66ED40EE66E010EE66EBAEC11F0E5526D
:1018B000E552E5521200D9CFE6FFE1CFD9FF030E82
:1018C000E126200E0001E76E6019E8AE02D0E73491
:1018D00002D0E750605D01E214D16450020B01E0D8
:1018E00010D10201E05101E00CD1B00EE66E010E04
:1018F000E66EE5EC12F0E552E552106E020E105C59
:101900000AE2B6C0B2F10101B251B15D01E0E8D026
:10191000010EF76FE5D0B00EE66E010EE66EE5EC57
:1019200012F0E552E552E66EB00EE66E010EE66E7E
:10193000A3EC15F0E552E552E552E76E020EE7CF53
:10194000DBFFDB5028E10A0E0001975D01E2D9D0F0
:101950000101B2510001B65D01E1D3D0B6C0B2F1D0
:10196000976B0101B151B25D02E1010ED36F010E1F
:10197000906F916F926B0201E05101E0C2D0030EB3
:10198000E66E900EE66E010EE66E00EC16F0E55285
:10199000E552E552B6D00001976BB2C1E6FFB6C082
:1019A000E6FFB00EE66E010EE66E03EC13F0E552B4
:1019B000E552E552E552000801E3A3D0B2C1E6FFCB
:1019C000B6C0E6FFB00EE66E010EE66E03EC13F055
:1019D000E552E552E552E552106E0001B651EA6A51
:1019E000B30FE96E010EEA22EF500F0B020F105CED
:1019F00001E287D0010EDB6ADF6A0001B651EA6AB4
:101A0000B30FE96E010EEA22EF500F0B020FFF0F2A
:101A1000F36E010EDBCFF4FFF350F45C0FE2010E26
:101A2000DB50B6250101B015EA6AB30FE96E010E6D
:101A3000EA22EF50DF1A010EDB2ADFD7010EDB505E
:101A4000B6250101B015EA6AB30FE96E010EEA226C
:101A5000EF50DF5C19E00001B651EA6AB30FE96E9E
:101A6000010EEA22EF500F0B020FE66EB6C0E6FF42
:101A7000B00EE66E010EE66E79EC13F0E552E5521B
:101A8000E552E55272DA3DD00001B651EA6AB30F71
:101A9000E96E010EEA22EF500F0B020FE66EB6C0A0
:101AA000E6FF39D8E552E552000901E176D7000199
:101AB0009F5118E0B651EA6AB30FE96E010EEA22AF
:101AC000EF500F0B020FE66EB6C0E6FFB00EE66EEB
:101AD000010EE66E79EC13F0E552E552E552E5525F
:101AE0005ADA0FD0B651EA6AB30FE96E010EEA2254
:101AF000EF500F0B020FB6250101B0150001B66FB4
:101B00004CD7030EE15C02E2E16AE552E16EE55278
:101B1000E7CFD9FF1200D9CFE6FFE1CFD9FFFE0E04
:101B2000DB50EA6AB30FE96E010EEA22EF50F008CB
:101B300027E1020EE66EFE0EDBCFE6FFB00EE66E8C
:101B4000010EE66E79EC13F0E552E552E552E552EE
:101B50000101020E906F200E916F120E926F030E14
:101B6000E66E900EE66E010EE66E46DCE552E5523C
:101B7000E5520101936F0201E05101E02DD1B2D095
:101B8000FE0EDB50EA6AB30FE96E010EEA22EF5057
:101B9000F20862E1FE0EDB280101B015EA6AB30F1C
:101BA000E96E010EEA22EF0457E1040EE66EFE0E26
:101BB000DBCFE6FFB00EE66E010EE66E79EC13F0B9
:101BC000E552E552E552E552FE0EDB50020F0101EF
:101BD000B015EA6AB30FE96E010EEA22EF50000871
:101BE00022E2FE0EDB50020FB015EA6AB30FE96E77
:101BF000010EEA22EFCF10F0200E105C14E2FE0E70
:101C0000DB50020FB015EA6AB30FE96E010EEA224B
:101C1000EF501F0B0001A96FA9C0E6FFE66A48EC70
:101C200018F0E552E5520101F20E906F010E916F2E
:101C3000A9C092F1030EE66E900EE66E010EE66EFE
:101C4000FCEC09F0E552E552E5520101936F020107
:101C5000E05101E0C1D046D0FE0EDB50EA6AB30F7E
:101C6000E96E010EEA22EF50F2083EE1FE0EDB289B
:101C70000101B015EA6AB30FE96E010EEA22EF50D6
:101C8000020832E1040EE66EFE0EDBCFE6FFB00E78
:101C9000E66E010EE66E79EC13F0E552E552E55280
:101CA000E5520101F20E906F020E916FFE0EDB50B5
:101CB000020FB015EA6AB30FE96E010EEA22EFCF08
:101CC00092F1030EE66E900EE66E010EE66EFCECEF
:101CD00009F0E552E552E5520101936F0201E0512E
:101CE00001E07AD0040E6BD0FE0EDB50EA6AB30F2F
:101CF000E96E010EEA22EF50F1086CE1FE0EDB28DE
:101D00000101B015EA6AB30FE96E010EEA22EF5045
:101D1000050860E1030EE66EFE0EDBCFE6FFB00EB7
:101D2000E66E010EE66E79EC13F0E552E552E552EF
:101D3000E5520101F40E906F050E916F100E1F0B0E
:101D4000A0C010F0A1C011F0A2C012F006E0D8901F
:101D5000123211321032E806FAE1116A126A10C02A
:101D600092F1080E1F0BA0C010F0A1C011F0A2C08C
:101D700012F006E0D890123211321032E806FAE181
:101D8000116A126A10C093F1A0C010F0A1C011F046
:101D9000A2C012F0116A126A10C094F1050EE66E2C
:101DA000900EE66E010EE66EFCEC09F0E552E5528F
:101DB000E5520101956F0201E0510EE1060EE66E5B
:101DC000900EE66E010EE66E00EC16F0E552E5525E
:101DD000E55202D0010E01D0000EE552E7CFD9FF47
:101DE000120000019A51EA6AB30FE96E010EEA226D
:101DF000EF50E66E000EE66EE66A55EC17F0E5521F
:101E0000E552E55200019A290101B01500019A6FCF
:101E10000101B151EA6AB30FE96E010EEA22EF50F7
:101E20000F0B020FB125B01500019A5D27E10101EA
:101E3000B151EA6AB30FE96E010EEA22EFCFB7F0B3
:101E4000B129B015EA6AB30FE96E010EEA22EFCFAD
:101E5000B8F09AC0B1F1B251B15D02E1010ED36F99
:101E6000B8C0E6FFB7C0E6FFC2D8E552E5529D987C
:101E70000001010E9B6F070EA76F02D09D88A76B14
:101E800082821200D9CFE6FFE1CFD9FF020EE12610
:101E9000DE6ADD6ADECF10F0DDCF11F0FD0EDBCFA4
:101EA000E9FFFE0EDBCFEAFFEF50126E136A13500C
:101EB0001118E8AE02D0113404D01050125C115049
:101EC000135822E3FD0EDBCFE9FFFE0EDBCFEAFF66
:101ED000030EE926000EEA22DE50E924E96EDD5009
:101EE000EA20EA6EEF50E66EDECFE9FFDDCFEAFFD3
:101EF000900EE926010EEA22E552E750EF6EDF2A46
:101F0000010EC8E3DB2AC6D7FD0EDBCFE9FFFE0ECC
:101F1000DBCFEAFFEF28E66E900EE66E010EE66E6E
:101F200000EC16F0E552E552E552020EE15C02E2E9
:101F3000E16AE552E16EE552E7CFD9FF12000101F7
:101F4000010E906F040E916F050E926F0201E05129
:101F50000BE1030EE66E900EE66E010EE66E00ECEF
:101F600016F0E552E552E55212000101010E906FA4
:101F7000030E916F020E926F0201E0510BE1030E0E
:101F8000E66E900EE66E010EE66E00EC16F0E5527F
:101F9000E552E55212000101010E906F060E916F9D
:101FA000070E926F0201E0510BE1030EE66E900EF8
:101FB000E66E010EE66E00EC16F0E552E552E552D3
:101FC00012000101010E906F020E916F030E926FCD
:101FD0000201E0510BE1030EE66E900EE66E010E7B
:101FE000E66E00EC16F0E552E552E5521200D9CF4C
:101FF000E6FFE1CFD9FF020EE126900EF36EFE0E52
:10200000DBCFF4FFF350F45C04E3FE0EDB509F08DB
:1020100029E2DE6ADD6ADECF10F0DDCF11F0070EB7
:10202000105C000E115825E2DECFE9FFDDCFEAFF9C
:10203000B90EE926000EEA22EF50F36EFE0EDB50D9
:10204000F35C12E1FE0EDB50E30804E1FD0EDB5011
:1020500044080AE1FE0EDB50220804E1FD0EDB50CD
:10206000220802E16CDF05D0DF2A010ED4E3DB2A6F
:10207000D2D7020EE15C02E2E16AE552E16EE5527E
:10208000E7CFD9FF1200E66A3AEC18F0E5520001FA
:10209000A96F010EA95D03E3A9511F0809E21D0EF6
:1020A000A96FA9C0E6FFE66A48EC18F0E552E552D0
:1020B0001200D9CFE6FFE1CFD9FFFE0EDB50EA6A6E
:1020C000B30FE96E010EEA22EF5022080AE0FE0E7D
:1020D000DB50EA6AB30FE96E010EEA22EF502308E3
:1020E00004E10001010EA86FAA6FE552E7CFD9FF06
:1020F0001200D9CFE6FFE1CFD9FFE6520001D88028
:102100000A0EA055000EA155000EA25502E3000EC6
:1021100001D0010EE824DF6ED40EE66E010EE66EED
:1021200047EC12F0E552E552106E0101D429FE0B86
:10213000E842105C11E2B00EE66E010EE66E47EC6E
:1021400012F0E552E552116E0101B029FE0BE84292
:10215000115C02E2000E01D0010E040DF350DF12FB
:10216000DF5002E1010EDF6EDFCFAEF0E552E55247
:10217000E7CFD9FF1200D9CFE6FFE1CFD9FF040E98
:10218000E66EFD0EDBCFE6FFF80EE66E010EE66EA4
:10219000D40EE66E010EE66E1BEC13F0106E060E0A
:1021A000E15E1050600E0101F85D0AE1610EF95D1B
:1021B00007E1020EFA5D04E10001010EB06FA86FA5
:1021C000600E0101F85D08E1610EF95D05E1FA05B7
:1021D00003E10001B06BA86BE552E7CFD9FF120015
:1021E000D9CFE6FFE1CFD9FFFD0EDBCFE9FFFE0E31
:1021F000DBCFEAFF030EE926000EEA22E9CF10F05A
:10220000EACF11F0FD0EDBCFE9FFFE0EDBCFEAFFD8
:10221000020EE926000EEA22EF501024E96E000EAD
:102220001120EA6EFC0EDBCFEFFFFD0EDBCFE9FFE6
:10223000FE0EDBCFEAFFEFCF10F0FD0EDBCFE9FFA4
:10224000FE0EDBCFEAFF020EE926000EEA22EF289F
:102250001014E66EFD0EDBCFE9FFFE0EDBCFEAFFCA
:10226000020EE926000EEA22E552E750EF6EFD0E5F
:10227000DBCFE9FFFE0EDBCFEAFF230EE926000EDF
:10228000EA22EF6AE552E7CFD9FF1200D9CFE6FF85
:10229000E1CFD9FFE652FD0EDBCFE6FFFE0EDBCF2E
:1022A000E6FFF5D8E552E552000902E1000E5DD0E7
:1022B000FD0EDBCFE9FFFE0EDBCFEAFF030EE926C2
:1022C000000EEA22E9CF10F0EACF11F0FD0EDBCFCD
:1022D000E9FFFE0EDBCFEAFFEE52EF500F011024B4
:1022E000E96E000E1120EA6EEFCFDFFFFD0EDBCFAF
:1022F000E9FFFE0EDBCFEAFFEFCF10F0FD0EDBCFE4
:10230000E9FFFE0EDBCFEAFFEE52EF281014E66E77
:10231000FD0EDBCFE9FFFE0EDBCFEAFFEE52E5520A
:10232000E750EF6EFD0EDBCFE9FFFE0EDBCFEAFFDD
:10233000EE52EFCF10F0FD0EDBCFE9FFFE0EDBCF4C
:10234000EAFF020EE926000EEA22EF50105C0CE1D3
:10235000FD0EDBCFE9FFFE0EDBCFEAFF230EE92601
:10236000000EEA22010EEF6EDF50E552E552E7CF94
:10237000D9FF1200D9CFE6FFE1CFD9FFE652FD0E1B
:10238000DBCFE6FFFE0EDBCFE6FF81D8E552E5525C
:10239000DF6EFC0EDB50D880DF5403E2FC0EDB5016
:1023A000DF6EFD0EDBCFE9FFFE0EDBCFEAFFEFCFE6
:1023B00010F0FD0EDBCFE9FFFE0EDBCFEAFFEE52A1
:1023C000EF50DF241014E66EFD0EDBCFE9FFFE0EAA
:1023D000DBCFEAFFEE52E552E750EF6EFD0EDBCFAA
:1023E000E9FFFE0EDBCFEAFFEE52EFCF10F0FD0E5D
:1023F000DBCFE9FFFE0EDBCFEAFF020EE926000E7F
:10240000EA22EF50105C0CE1FD0EDBCFE9FFFE0E7F
:10241000DBCFEAFF230EE926000EEA22010EEF6E63
:10242000E552E552E7CFD9FF1200D9CFE6FFE1CF61
:10243000D9FFE652FD0EDBCFE9FFFE0EDBCFEAFF50
:10244000EFCF10F0FC0EDBCFE6FFFD0EDBCFE9FF98
:10245000FE0EDBCFEAFFEE52EF50E552E7241014F8
:10246000DF6EFD0EDBCFE9FFFE0EDBCFEAFF030ED2
:10247000E926000EEA22DF50E924E96E000EEA2088
:10248000EA6EEF50E552E552E7CFD9FF1200D9CFFF
:10249000E6FFE1CFD9FFFD0EDBCFE9FFFE0EDBCF7C
:1024A000EAFFEF28136EE66EFD0EDBCFE6FFFE0EB1
:1024B000DBCFE6FF30D8E552E552E552E7CF13F027
:1024C000000902E1000E01D0010E1302F3CF12F059
:1024D000FD0EDBCFE9FFFE0EDBCFEAFFEFCF11F001
:1024E000FD0EDBCFE9FFFE0EDBCFEAFF020EE92691
:1024F000000EEA22EFCF10F0FD0EDBCFE9FFFE0E5B
:10250000DBCFEAFFEE52EF50105C1114F324E552DA
:10251000E7CFD9FF1200D9CFE6FFE1CFD9FFFD0EFB
:10252000DBCFE9FFFE0EDBCFEAFFEE52EFCF10F07C
:10253000FD0EDBCFE9FFFE0EDBCFEAFF020EE92640
:10254000000EEA22EF50105C0CE1FD0EDBCFE9FF3C
:10255000FE0EDBCFEAFF230EE926000EEA22EF5043
:1025600002E0000E01D0010EE552E7CFD9FF1200C4
:10257000D9CFE6FFE1CFD9FFFD0EDBCFE9FFFE0E9D
:10258000DBCFEAFFEE52EFCF10F0FD0EDBCFE9FF1D
:10259000FE0EDBCFEAFF020EE926000EEA22EF5024
:1025A000105C0CE1FD0EDBCFE9FFFE0EDBCFEAFF96
:1025B000230EE926000EEA22EF5002E1000E01D0C0
:1025C000010EE552E7CFD9FF1200D9CFE6FFE1CFE8
:1025D000D9FFFD0EDBCFE9FFFE0EDBCFEAFFEF28D0
:1025E000106EE66EFD0EDBCFE6FFFE0EDBCFE6FFE4
:1025F0004EDFE552E552E552E7CF10F0105CE552B0
:10260000E7CFD9FF1200D9CFE6FFE1CFD9FFFD0E0A
:10261000DBCFE9FFFE0EDBCFEAFFEFCF10F0FB0EC2
:10262000DBCFE6FFFC0EDB50E552E75C1014E55211
:10263000E7CFD9FF1200D9CFE6FFE1CFD9FF020ED5
:10264000E126DE6ADD6ADECF10F0DDCF11F0F90E93
:10265000DB50000111AE02D0D89003D0105C000E08
:1026600011583DE2FD0EDBCFE9FFFE0EDBCFEAFFA6
:10267000030EE926000EEA22E9CF12F0EACF13F0AA
:10268000FA0EDB50186E196ADE501824166EDD50F3
:102690001920FD0EDBCFE9FFFE0EDBCFEAFFEF5086
:1026A0001614146E156A12501424E96E1350152076
:1026B000EA6EEF50E66EFB0EDBCF10F0FC0EDBCFC8
:1026C00011F0DE501024E96EDD501120EA6EE55263
:1026D000E750EF6EDF2A010EB6E3DB2AB4D7020E15
:1026E000E15C02E2E16AE552E16EE552E7CFD9FF33
:1026F0001200D9CFE6FFE1CFD9FF020EE126FC0E92
:10270000DB50DE6EDD6AFD0EDBCFE9FFFE0EDBCFB8
:10271000EAFFEFCF12F0FB0EDBCFE6FFFD0EDBCFC3
:10272000E9FFFE0EDBCFEAFF020EE926000EEA22E9
:10273000EF50E552D880E7541214116AE850DF18C0
:1027400003E11150DE52DD1866E0FD0EDBCFE9FF3C
:10275000FE0EDBCFEAFF030EE926000EEA22E9CFE8
:1027600014F0EACF15F0FB0EDB50E76E000EDFCF62
:1027700018F0010EDBCF19F0E7501826000E1922D1
:10278000FD0EDBCFE9FFFE0EDBCFEAFFEF500001CD
:102790001814166E176A14501624E96E1550172077
:1027A000EA6EEF50E66EFD0EDBCFE9FFFE0EDBCFEB
:1027B000EAFF030EE926000EEA22E9CF10F0EACF85
:1027C00011F0FD0EDBCFE9FFFE0EDBCFEAFFEF508D
:1027D000126E136A000EDFCF08F0010EDBCF09F096
:1027E00012C00DF013C00EF067EC18F013AE04D059
:1027F000046C051E000E052210500424E96E1150D1
:102800000520EA6EE552E750EF6EDF2A010E01E285
:102810007AD7DB2A78D7FD0EDBCFE9FFFE0EDBCFC0
:10282000EAFFEF50E76E000EDFCF10F0010EE75029
:102830001016116AFD0EDBCFE9FFFE0EDBCFEAFFBB
:10284000020EE926000EEA2210C0EFFFFD0EDBCFDC
:10285000E9FFFE0EDBCFEAFFEE52EFCF10F0FD0EE8
:10286000DBCFE9FFFE0EDBCFEAFF020EE926000E0A
:10287000EA22EF50105C0CE1FD0EDBCFE9FFFE0E0B
:10288000DBCFEAFF230EE926000EEA22010EEF6EEF
:10289000020EE15C02E2E16AE552E16EE552E7CF49
:1028A000D9FF1200D9CFE6FFE1CFD9FF020EE12612
:1028B000FD0EDBCFE6FFFE0EDBCFE6FFE8DDE552E7
:1028C000E552106EFA0EDB50105C01E286D0FD0E70
:1028D000DBCFE9FFFE0EDBCFEAFFEFCF10F0FA0E01
:1028E000DBCFE6FFFD0EDBCFE9FFFE0EDBCFEAFF1D
:1028F000EE52EF50E552D880E7541014E66EFD0E0C
:10290000DBCFE9FFFE0EDBCFEAFFEE52E552E750E8
:10291000EF6EDE6ADD6ADECF10F0DDCF11F0FA0E69
:10292000DB50000111AE02D0D89003D0105C000E35
:10293000115844E2FB0EDBCF18F0FC0EDBCF19F090
:10294000DE501824E96EDD501920EA6EEF50E66E75
:10295000FD0EDBCFE9FFFE0EDBCFEAFF030EE9261B
:10296000000EEA22E9CF10F0EACF11F0FD0EDBCF26
:10297000E9FFFE0EDBCFEAFFEE52EF50166E176A4C
:10298000DE501624146EDD501720156EFD0EDBCFC1
:10299000E9FFFE0EDBCFEAFFEF501414126E136A4C
:1029A00010501224E96E11501320EA6EE552E750E0
:1029B000EF6EDF2A010EAFE3DB2AADD7FA0EDB5054
:1029C00000080BE2FD0EDBCFE9FFFE0EDBCFEAFFD6
:1029D000230EE926000EEA22EF6A020EE15C02E213
:1029E000E16AE552E16EE552E7CFD9FF1200D9CF97
:1029F000E6FFE1CFD9FFFD0EDBCFE9FFFE0EDBCF17
:102A0000EAFF020EE926000EEA22EF50E66EFD0E06
:102A1000DBCFE9FFFE0EDBCFEAFFEE52E552E750D7
:102A2000EF6EFD0EDBCFE9FFFE0EDBCFEAFF230EDC
:102A3000E926000EEA22010EEF6EE552E7CFD9FF3C
:022A4000120082
:0E2A4200020140511F0B010801E0120040513B
:102A5000600BE842E842E842E842E842010801E04F
:102A60001200445103E0440501E012004151220AE2
:102A700031E0030A24E0010A15E0210A0DE0010A11
:102A800001E012000001F00E796F020E7A6F080E5D
:102A90007C6F7D6B7B8121D00001F00E796F020E7F
:102AA0007A6F1BD046C281F047C282F00001D80E77
:102AB0007E6F020E7F6F836B846B808F120000012C
:102AC000D80E796F020E7A6F070E7C6F7D6BC10E88
:102AD0007B6F120042C2EBF200017B8F12000201F9
:102AE000D86B4B0ED96FDA6BDB6BDC6BDD6B080ED2
:102AF000DE6F0201E06BDF6B1A0EE66E020EE66E11
:102B0000F8EC06F0E552E5521E0EE66E030EE66E98
:102B1000F8EC06F0E552E552400EE66E580EE66E11
:102B2000020EE66EE66A030EE66E9CEC07F0106E8F
:102B3000050EE15E1050F3CFE7F2F4CFE8F20201A8
:102B4000E96BEA6B1200D9CFE6FFE1CFD9FF0201B2
:102B5000DF6BE751E81102E1000E08D0E7C2E9FFA0
:102B6000E8C2EAFFEF50800B01E0010E000942E1EC
:102B7000FC0EDBCF10F0E7C2E9FFE8C2EAFFEE523D
:102B8000EF50D880105408E2E7C2E9FFE8C2EAFF3C
:102B9000EE52FC0EEFCFDBFFDF6BFC0EDB50DF5D98
:102BA00016E2DF51EA6A580FE96E020EEA22EF5090
:102BB000E66EFD0EDBCFE6FFFE0EDBCFE6FFF0ECB0
:102BC00010F0E552E552E5520201DF2BE6D7400E48
:102BD000E66E580EE66E020EE66EE66A030EE66ECE
:102BE0009CEC07F0106E050EE15E1050F3CFE7F29B
:102BF000F4CFE8F20201DF51E552E7CFD9FF12002E
:102C0000D9CFE6FFE1CFD9FFA0940201E0510CE15A
:102C1000FD0EDBCFE1F2FE0EDBCFE2F2FC0EDBCFEE
:102C2000E5F2010EE66FE06FA084E552E7CFD9FF31
:102C30001200D9CFE6FFE1CFD9FF030EE126A09421
:102C40000201E0512DE1DF6AFD0EDBCF08F0FE0E40
:102C5000DBCF09F0DE5208C0DEFF09C0DDFFDD5228
:102C6000DF2ADF50106E116AFF0E101802E11150BA
:102C70000BE0010EDBCFE9FFDB2A020EDBCFEAFF20
:102C800001E3DB2AEF50ECE1FD0EDBCFE1F2FE0EBB
:102C9000DBCFE2F2DFCFE5F20201010EE66FE06F7B
:102CA000A084030EE15C02E2E16AE552E16EE552C6
:102CB000E7CFD9FF1200D9CFE6FFE1CFD9FF030E4E
:102CC000E126A0940201E0512EE1DF6AFD0EDBCF88
:102CD00008F0FE0EDBCF09F0DE5208C0DEFF09C0AF
:102CE000DDFFDD52DF2ADF50106E116AFF0E101873
:102CF00002E111500CE0010EDBCFF6FFDB2A020EE1
:102D0000DBCFF7FF01E3DB2A0800F550EBE1FD0E16
:102D1000DBCFE1F2FE0EDBCFE2F2DFCFE5F2020124
:102D2000E66B010EE06FA084030EE15C02E2E16A53
:102D3000E552E16EE552E7CFD9FF1200D9CFE6FFA9
:102D4000E1CFD9FF020EE126A0940201E951EA1178
:102D500002E1000E08D0E9C2E9FFEAC2EAFFEF5043
:102D6000800B01E0010E000906E1030EE05D01E1C8
:102D7000E06BE05102E1A0847ED0020EE05D16E13E
:102D8000E66A000EE66EE66A010EE66E030EE66E79
:102D90009CEC07F0106E050EE15E1050F3CFE9F2E7
:102DA000F4CFEAF20201030EE06F64D0E00562E1C5
:102DB000400E106E116AE551105C000E115803E2CE
:102DC000400EDF6E02D0E5C2DFFFDF50E55DE56F4C
:102DD000980EE36F020EE46F010EDFCFDBFFE651CA
:102DE00016E1010EDB5028E0E1C2F6FFE2C2F7FF78
:102DF0000800F550E3C2E9FFE4C2EAFFEF6EE32BFF
:102E0000000EE423E12BE223010EDB06EAD7010EDC
:102E1000DB5012E0E1C2E9FFE2C2EAFFEF50E3C299
:102E2000E9FFE4C2EAFFEF6EE32B000EE423E12B9F
:102E3000E223010EDB06EBD70201E55107E1400E6C
:102E4000DF5C02E1020E01D0030EE06FDFCFE6FF90
:102E5000980EE66E020EE66E010EE66E030EE66E4C
:102E60009CEC07F0106E050EE15E1050F3CFE9F216
:102E7000F4CFEAF2A084020EE15C02E2E16AE552DC
:0A2E8000E16EE552E7CFD9FF120022
:062E8A00938A939C939EC5
:102E9000AC94B8960B0EAF6E8A9CAC98AB8EAC8C93
:102EA000AB8CAB86AB88AC8A1200D9CFE6FFE1CF02
:102EB000D9FFFD0EDB50E8B0AC80E8A0AC90FC0E72
:102EC000DB50AD6EE552E7CFD9FF12009E50200BCC
:102ED00001E0010E1200D9CFE6FFE1CFD9FF030ECA
:102EE000E126AB50040B01E0010EE76E020EE7CFC6
:102EF000DBFFAB50010BE76E010EE7CFDBFFAE50FF
:102F0000DF6EABB2AB989E9ADFCF10F0010EDBCF35
:102F100011F0020EDBCF12F010C007F011C008F064
:102F200012C009F0030EE15C02E2E16AE552E16ED3
:082F3000E552E7CFD9FF1200C2
:082F3800200EF66E000EF76E8C
:102F4000000EF86E00010900F550C56F0900F5503C
:102F5000C66F03E1C56701D03DD00900F550C06FD1
:102F60000900F550C16F0900F550C26F0900090052
:102F7000F550E96E0900F550EA6E090009000900F4
:102F8000F550C36F0900F550C46F09000900F6CF72
:102F9000C7F0F7CFC8F0F8CFC9F0C0C0F6FFC1C086
:102FA000F7FFC2C0F8FF0001C35302E1C45307E0BA
:102FB0000900F550EE6EC307F8E2C407F9D7C7C0A1
:102FC000F6FFC8C0F7FFC9C0F8FF0001C507000E33
:062FD000C65BBFD7120032
:0A2FD6001201000202000008D804F6
:102FE0000A0000010102000109024300020100C0C1
:102FF000320904000001020201000524001001044E
:1030000024020205240600010524010001070582AF
:103010000308000209040100020A0000000705037A
:103020000240000007058302400000040309043445
:10303000034D006900630072006F0063006800695F
:10304000007000200054006500630068006E006F8F
:10305000006C006F0067007900200049006E00637B
:10306000002E00080375004C004900E82F2B302F7C
:033070003063309A
:0C307400D9CFE6FFE1CFD9FFA66AFE0E1F
:10308000DB50A96EA680A850E552E7CFD9FF120009
:10309000D9CFE6FFE1CFD9FFE652F250DF6EA66A44
:1030A000A684FE0EDB50A96EFD0EDB50A86EF29ECC
:1030B000550EA76EAA0EA76EA682DF50F26EA1A8CB
:0E30C000FED7A694E552E552E7CFD9FF1200E5
:0230CE00006A96
:1030D0000EAE70EF18F00D6C0E1EE86A0E22001E88
:1030E00009AE78EF18F0086C091EE86A0922001E84
:1030F000A7EC18F009BE88EF18F000AE000C086CC1
:10310000091EE86A0922046C051EE86A0522000C03
:0A31100000BE7FEF18F00188FF0CED
:06311A00FE0EE3CFE9FF09
:10312000FF0EE3CFEAFFE9CFF3FFEACFF4FFFB0E98
:10313000E35003E1FC0EE35009E0FB0EE30602E27C
:0E314000FC0EE306FD0EE350EE6EF1D712001A
:02314E00056A10
:10315000046A100EE76ED890083609360436053634
:103160000D50045C0E50055805E30D50045E0E50E2
:0A317000055A082AE72EF0D71200D6
:06317A00000EF36E00EEF2
:1031800000F0030E01D81200EA6002D0EE6AFCD70C
:0A319000F350E9601200EE6AFCD76C
:06319A0011EE50F021EEE1
:1031A00050F0F86A019C9CEC17F0DBEC18F050EC46
:0631B00009F0FBD712003C
:0231B600120005
:0831B80000000000000000000F
:1031C00000010000000000000A00001D000F0000C8
:1031D000010000000000000000000022528384E48F
:0231E000E6E324
:020000040030CA
:0100000020DF
:0100010032CC
:010002000EEF
:010003001EDE
:01000500807A
:010006008D6C
:0100080003F4
:01000900C036
:01000A0003F2
:01000B00E014
:01000C0003F0
:01000D0040B2
:00000001FF
