:020000040000FA
:060000008FEF18F0120062
:060008008AEF08F012006F
:06001800DDEF08F012000C
:0E00200001003C3100004001000029000000FA
:02002E00D9CF28
:10003000E6FFE1CFD9FFE652A0940F015F6B626A41
:10004000160E616E9F0E5B6F7B0E606E648C5C6B38
:10005000030EE66EE66AE66A540EE66E0F0EE66E74
:100060004FEC18F0106E050EE15E1050649CDF6AD4
:10007000DF50106E116A100E105C000E115810E265
:10008000DF50040DF3CFE9FFF4CFEAFF000EE926BD
:10009000020EEA22EE6AEE6AEE6AEE6ADF2AE8D71C
:1000A0000F01160E536F62A602D06296FCD70001B4
:1000B000E36BE86BE96BEA6B6498DF6A040EDF5C64
:1000C00018E2EA6ADF34FE0BEA36E96ED70EE9265B
:1000D000000EEA22EE6AED6AEA6ADF34FE0BEA36C7
:1000E000E96ECF0EE926000EEA22EE6AED6ADF2AFB
:1000F000E5D70001080ED76F020ED86FC96BC86B29
:10010000E552E552E7CFD9FF1200D9CFE6FFE1CFA4
:10011000D9FFE6520001C80507E164BA05D0626A5A
:1001200060806088020EC86F6250040B05E060506A
:10013000040B02E06294B9D864B260D06250010B43
:1001400016E06050010B13E072DFD08EA284A08411
:10015000F28E0001040EC86F0201400E026F020E03
:10016000036F080E016F006B8C0E001362906250DB
:10017000100B05E06050100B02E085D862986250C9
:10018000400B13E06050400B10E0010EE66EE66A93
:10019000000EE66EE66A730EE66EE66A9CEC09F007
:1001A000106E060EE15E1050629C6250200B04E05F
:1001B0006050200B01E04DD86250020B14E06050FB
:1001C000020B11E0010EE66EE66A000EE66EE66ACC
:1001D000E6687F0EE66E9CEC09F0106E060EE15E9E
:1001E00010500F015F6B040E0001E76EC819E8AEF6
:1001F00002D0E73402D0E750C85D02E2A19424D0D7
:1002000060A621D0DF6A040EDF5C1DE262A61BD06F
:1002100063CFF0F06296780E0001F01502E15AD833
:1002200010D0000EE66EE66AF00EE66E000EE66E88
:10023000720EE66EE66A9CEC09F0106E060EE15E48
:100240001050DF2AE0D7A194E552E552E7CFD9FF5D
:1002500012000F0153A115D0CBC0E9FFCCC0EAFFBB
:10026000EF5080080DE1D7C0E9FFD8C0EAFFEF509A
:10027000840806E1CBC0E9FFCCC0EAFF8C0EEF6E2C
:100280005391629A1200608462986482000EE66E56
:10029000E66AE66EE66A750EE66EE66A9CEC09F0C2
:1002A000106E060EE15E10501200000EE66EE66A59
:1002B000E66EE66A740EE66EE66A9CEC09F0106E75
:1002C000060EE15E10506492609462A402D06294C3
:1002D000FCD71200D9CFE6FFE1CFD9FFE652FD0EE1
:1002E0000001F0155AE17E0EF015E8407F0B040D79
:1002F000F3CFCBF0F4CFCCF0000ECB27020ECC2303
:10030000CBC0CDF0CCC0CEF0CD75CBC0E9FFCCC01A
:10031000EAFFEF503C0BE842E8420D083CE1CBC05D
:10032000E9FFCCC0EAFF020EE926000EEA22EECF7A
:1003300010F0EFCF11F0480E10182BE1020E11183B
:1003400028E1CBC0E9FFCCC0EAFF020EE926000E8F
:10035000EA22400EEE6E020EED6EDF6ADF50106E86
:10036000116A080E105C000E115813E2DF50EA6AA1
:10037000480FE96E020EEA22EF50E66EDF50EA6A9D
:10038000400FE96E020EEA22E552E750EF6EDF2AD7
:10039000E5D70DD807D02ED805D0FD0EF0150408EE
:1003A00001E14ED8E552E552E7CFD9FF1200D7C0A0
:1003B000E9FFD8C0EAFFEF50800B05E0D7C0E9FFA6
:1003C000D8C0EAFFEF6A0001DF6BE06BE46BE56B1E
:1003D000E36BB5D8000EE66EE66AE66EE66A030EDB
:1003E000E66EE66A9CEC09F0106E060EE15E1050B7
:1003F00034EF04F0020E0001E05D02E18FEF05F042
:100400006CD80001F1511AE1CDC0E9FFCEC0EAFF7E
:10041000EE52080EEF6ECDC0E9FFCEC0EAFF020E2D
:10042000E926000EEA22400EEE6E020EED6ECDC001
:10043000E9FFCEC0EAFF8C0EEF6E1200F16B1200E6
:10044000D9CFE6FFE1CFD9FFE652D7C0E9FFD8C048
:10045000EAFFEF50400B01E0010EDF6E0001D7759F
:10046000080EC85D0CE142C25CFF0F015C51000840
:1004700003E20001100E02D00001040EC86FE00577
:1004800026E1D7C0E9FFD8C0EAFF020EE926000E38
:10049000EA22480EEE6E020EED6EB8DA020E000190
:1004A000DF5D06E1D7C0E9FFD8C0EAFF840E0DD0BA
:1004B000DF5006E1D7C0E9FFD8C0EAFFC80E05D07B
:1004C000D7C0E9FFD8C0EAFF880EEF6E01D005D88B
:1004D000E552E552E7CFD9FF1200D9CFE6FFE1CFD1
:1004E000D9FF020EE1260001E06BD7C0E9FFD8C0BA
:1004F000EAFFEF6A040ED719106ED8C011F0DE6E55
:10050000D8C0DDFFDECFE9FFDDCFEAFFEF6AE8AF5D
:100510000CD0EB51EC1107E005D0ECC0FAFF000164
:10052000EB51F96EFADF0001E89F020EE15C02E296
:10053000E16AE552E16EE552E7CFD9FF1200020110
:100540004051600BE842E842E842E842E8420009D4
:1005500001E0120041510C0A50E00B0A3FE00C0A86
:1005600031E0010A22E00B0A1EE0020A1CE0030A45
:1005700018E0080A10E0010A0CE00F0A08E0030A7C
:1005800001E012000001E38F080EC86F120083EF34
:1005900003F02BEF06F00001C90EE16F000EE26FD1
:1005A0000CD0DAEF03F0FEEF02F044510001E16FEE
:1005B000E26BCA0EE127000EE223E381010EE46F35
:1005C000E38F12000001E38F02014451EA6ACA0F6F
:1005D000E96E000EEA2242C2EFFF1200000EE66E44
:1005E000E66AE66EE66A020EE66EE66A9CEC09F0E2
:1005F000106E060EE15E105012001200D9CFE6FF19
:10060000E1CFD9FF040EE1260201420510E140517D
:100610001F0B00090CE10001E38F030E0201415D95
:1006200004E10001010EEF6F02D00001EF6B020147
:1006300042515FE140511F0B02085BE144510F0B37
:10064000000957E00001E38F020144BF0BD0445181
:100650000F0BE96EEA6AD890E936EA36CF0EE92642
:10066000000E0AD044510F0BE96EEA6AD890E936C1
:10067000EA36D70EE926000EEA22EECFDEFFEDCFF6
:10068000DDFF030E415D06E1DECFE9FFDDCFEAFFCE
:10069000840E2ED044510F0B116A530F106E0F0EA3
:1006A0001122020E10C0DBFF030E11C0DBFF020E91
:1006B000DBCFE9FF030EDBCFEAFFEF9044AF0CD0B6
:1006C000DECFE9FFDDCFEAFFEF6ADF74DECFE9FFBF
:1006D000DDCFEAFF400E0CD0DECFE9FFDDCFEAFF31
:1006E000880EEF6EDF74DECFE9FFDDCFEAFFC80EC4
:1006F000EF6E040EE15C02E2E16AE552E16EE55262
:10070000E7CFD9FF1200800E0201405D52E10001E7
:10071000C00EE36F02014351030A29E0010A09E018
:10072000030A45E100015A0EE16F2F0EE26F120E2F
:1007300038D04251F66EF76AD890F636F736EF0E9B
:10074000F6262F0EF7220900F5CFE1F00A00F5CFCB
:10075000E2F0020E0001F76AE125F66EE251F7229F
:100760000900F5CFE4F00A00F5CFE5F01200030E22
:10077000425D1AE24251F66EF76AD890F636F736C5
:10078000F10EF6262F0EF7220900F5CFE1F00A0050
:10079000F5CFE2F0E1C0F6FFE2C0F7FF0800F55048
:1007A0000001E46FE56B12000001E36B1200000131
:1007B000E36B1200D9CFE6FFE1CFD9FF020EE126AD
:1007C0000201486B496B40511F0B020A11E0030AFA
:1007D0000CE0010A35E10001E38F020148810001CC
:1007E000EF052EE1020148832BD00001E38F28D0D2
:1007F0000001E38F020144BF0BD044510F0BE96E9F
:10080000EA6AD890E936EA36CF0EE926000E0AD019
:1008100044510F0BE96EEA6AD890E936EA36D70EF2
:10082000E926000EEA22EECFDEFFEDCFDDFFDECFC0
:10083000E9FFDDCFEAFFEF50040B02E0010E486F45
:100840000001E3AF07D0480EE16F020EE26FE381D3
:10085000020EE46F020EE15C02E2E16AE552E16E33
:10086000E552E7CFD9FF120064980001E3BF47D0FB
:10087000E8AF26D0020EE06FD7C0E9FFD8C0EAFF8C
:10088000EE52EF6AD7C0E9FFD8C0EAFFC80EEF6E9C
:10089000CDC0E9FFCEC0EAFFEE52080EEF6ECDC02C
:1008A000E9FFCEC0EAFF020EE926000EEA22480E5A
:1008B000EE6E020EED6ECDC0E9FFCEC0EAFF7AD03B
:1008C000CDC0E9FFCEC0EAFFEE52080EEF6ECDC0FC
:1008D000E9FFCEC0EAFF020EE926000EEA22400E32
:1008E000EE6E020EED6ECDC0E9FFCEC0EAFF8C0EBB
:1008F000EF6ED7C0E9FFD8C0EAFF840E5CD0E8BF36
:1009000084D0020140AF59D00001E4510201465D9C
:100910000001E5510201475904E246C2E4F047C232
:10092000E5F074D80001010EE06FCDC0E9FFCEC044
:10093000EAFFEE52080EEF6ECDC0E9FFCEC0EAFF2F
:10094000020EE926000EEA22400EEE6E020EED6E59
:10095000CDC0E9FFCEC0EAFF800EEF6EF16BCBC0D9
:10096000E9FFCCC0EAFFEE52080EEF6ECBC0E9FF04
:10097000CCC0EAFF020EE926000EEA22400EEE6E1F
:10098000020EED6ECBC0E9FFCCC0EAFF840EEF6E25
:10099000010EF16FD7C0E9FFD8C0EAFF020EE926C9
:1009A000000EEA22480EEE6E020EED6ED7C0E9FF91
:1009B000D8C0EAFFC80EEF6E12000001020EE06F11
:1009C000D7C0E9FFD8C0EAFFEE52EF6AD7C0E9FF0F
:1009D000D8C0EAFFC80EEF6ECDC0E9FFCEC0EAFF77
:1009E000EE52080EEF6ECDC0E9FFCEC0EAFF020E58
:1009F000E926000EEA22480EEE6E020EED6ECDC024
:100A0000E9FFCEC0EAFFC80EEF6E1200D9CFE6FFB5
:100A1000E1CFD9FF020EE1260001080EE45D000ED1
:100A2000E5590DE2E4C0DEFFE5C0DDFFDF5102E184
:100A3000010E03D0DF0506E1020EDF6F03D0080EC2
:100A4000DE6EDD6AD7C0E9FFD8C0EAFFEF92D7C0FB
:100A5000E9FFD8C0EAFFEF90D7C0E9FFD8C0EAFFAE
:100A6000010EDB50EF12D7C0E9FFD8C0EAFFEE520B
:100A7000DFCFEFFF000EDB50E45F010EDB50E55BE4
:100A8000480EED6F020EEE6FE3B120D0D9CFE9FF33
:100A9000DACFEAFFEE50ED1038E0E1C0F6FFE2C039
:100AA000F7FFE12B000EE2230800F550E66EEDC0E3
:100AB000E9FFEEC0EAFFED2B000EEE23E552E75012
:100AC000EF6EDF06010EE2E2DB06E0D7D9CFE9FFE9
:100AD000DACFEAFFEE50ED1018E0E1C0E9FFE2C026
:100AE000EAFFE12B000EE223EF50E66EEDC0E9FFD6
:100AF000EEC0EAFFED2B000EEE23E552E750EF6E5D
:100B0000DF06010EE3E2DB06E1D7020EE15C02E262
:100B1000E16AE552E16EE552E7CFD9FF1200D9CF85
:100B2000E6FFE1CFD9FF020EE126CBC0E9FFCCC042
:100B3000EAFFEE52EFCFDFFFDFCF10F010500001E1
:100B4000E95D000EEA5902E2E9C0DFFFDF50106EF6
:100B5000116AE850E95DE96F1150EA59EA6F010E38
:100B6000DB6ADF50F36E010EDBCFF4FFF350F45C71
:100B700016E2010EDB50EA6A480FE96E020EEA2225
:100B8000EF50E66EE6C0E9FFE7C0EAFFE62B000E95
:100B9000E723E552E750EF6E010EDB2AE2D7000EA5
:100BA000D880E955000EEA5527E2CDC0E9FFCEC056
:100BB000EAFFEE52080EEF6ECDC0E9FFCEC0EAFFAD
:100BC000020EE926000EEA22480EEE6E020EED6ECF
:100BD000CBC0E9FFCCC0EAFFEF50400B06E1CDC02F
:100BE000E9FFCEC0EAFFC80E05D0CDC0E9FFCEC0F8
:100BF000EAFF880EEF6E25D0CDC0E9FFCEC0EAFF38
:100C0000EE52080EEF6ECDC0E9FFCEC0EAFF020E35
:100C1000E926000EEA22400EEE6E020EED6ECDC009
:100C2000E9FFCEC0EAFF840EEF6EEB51EC1107E056
:100C300005D0ECC0FAFF0001EB51F96EFADF0001BC
:100C4000E89F020EE15C02E2E16AE552E16EE552E4
:100C5000E7CFD9FF1200D9CFE6FFE1CFD9FFE652A7
:100C60000001E38F030EE66EE66AE66A540EE66E56
:100C70000F0EE66E4FEC18F0106E050EE15E105090
:100C8000DF6ADF50106E116A100E105C000E1158F2
:100C900010E2DF50040DF3CFE9FFF4CFEAFF000EBE
:100CA000E926020EEA22EE6AEE6AEE6AEE6ADF2AB0
:100CB000E8D7648C010EE66EE66AE66ACA0EE66E56
:100CC000000EE66E4FEC18F0106E050EE15E10504F
:100CD000649C0001080ED76F020ED86F000ECB6F18
:100CE000020ECC6FCBC0CDF0CE6F42C2C9F0C9515D
:100CF00002E1100E12D0010EE66EE66AC90EE66E33
:100D0000000EE66E010EE66EE66A9CEC09F0106ECF
:100D1000060EE15E10500001200EC86FE552E5524C
:100D2000E7CFD9FF1200D9CFE6FFE1CFD9FF020EFE
:100D3000E126000EDE6E020EDD6EFD0EDB50E824B5
:100D4000126EFE0EDB50040DF3501224040DF3500E
:100D5000106E116A020E0F0B05E0D890113210329E
:100D6000E806FBE1D89010361136D89010361136CF
:100D7000D9CFE9FFDACFEAFF1050EE261150ED226D
:100D8000DECFE9FFDDCFEAFFEF9EFD0EDB500AE18B
:100D9000FE0EEA6ADB34FE0BEA36E96ECF0EE92678
:100DA000000E09D0FE0EEA6ADB34FE0BEA36E96E6D
:100DB000D70EE926000EEA22DECFEEFFDDCFEDFFF3
:100DC000DECFE9FFDDCFEAFFEF9CDECFE9FFDDCF2D
:100DD000EAFF040EE926000EEA22EF8C020EE15C27
:100DE00002E2E16AE552E16EE552E7CFD9FF120077
:100DF000D9CFE6FFE1CFD9FF020EE126FE0EDB5090
:100E0000116A530F106E0F0E112210C0DEFF11C0B9
:100E1000DDFFDECFE9FFDDCFEAFFFD0EDBCFEFFF29
:100E2000DBA407D0E66AFE0EDBCFE6FF7CDFE552EF
:100E3000E552FD0EDBA208D0010EE66EFE0EDBCF02
:100E4000E6FF71DFE552E552020EE15C02E2E16A83
:100E5000E552E16EE552E7CFD9FF1200D9CFE6FFA8
:100E6000E1CFD9FF020EE126FE0EDB5020E1CDC01E
:100E7000E9FFCEC0EAFFEE52080EEF6ECDC0E9FFEB
:100E8000CEC0EAFF020EE926000EEA22400EEE6E08
:100E9000020EED6ECDC0E9FFCEC0EAFF8C0EEF6E04
:100EA000D7C0E9FFD8C0EAFF840EEF6E3BD0FD0E3D
:100EB000DB50E824126EFE0EDB50040DF3501224BA
:100EC000040DF3CF10F0F4CF11F0000E1026020E37
:100ED000112210C0DEFF11C0DDFF840EDECFE9FF5E
:100EE000DDCFEAFFE850EF12FD0EDB50E824126E72
:100EF000FE0EDB50040DF3501224010F040DF3CF4E
:100F000010F0F4CF11F0000E1026020E112210C0C6
:100F1000DEFF11C0DDFF840EDECFE9FFDDCFEAFF8B
:100F2000E850EF12020EE15C02E2E16AE552E16E86
:100F3000E552E7CFD9FF1200D9CFE6FFE1CFD9FFC5
:100F4000020EE126FD0EDB500AE0FE0EEA6ADB34FB
:100F5000FE0BEA36E96ED70EE926000E09D0FE0E2A
:100F6000EA6ADB34FE0BEA36E96ECF0EE926000EA4
:100F7000EA22EECFDEFFEDCFDDFFD9CFE9FFDACFFA
:100F8000EAFFEE50ED1003E1F36AF46A44D0DECFDD
:100F9000E9FFDDCFEAFF020EE926000EEA22FB0E92
:100FA000DBCFEEFFFC0EDBCFEDFFDECFE9FFDDCFC9
:100FB000EAFFEE52FA0EDBCFEFFF400EDECFE9FF85
:100FC000DDCFEAFFE850EF16880EDECFE9FFDDCF78
:100FD000EAFFE850EF12FD0EDB500AE0FE0EEA6A6F
:100FE000DB34FE0BEA36E96ED70EE926000E09D097
:100FF000FE0EEA6ADB34FE0BEA36E96ECF0EE92616
:10100000000EEA22EF74DECF10F0DDCF11F010C039
:10101000F3FF11C0F4FF020EE15C02E2E16AE55267
:10102000E16EE552E7CFD9FF1200D9CFE6FFE1CF5D
:10103000D9FF64A84ED0FE0EEA6ADB34FE0BEA3616
:10104000E96ED70EE926000EEA22EE50EFCFEAFF56
:10105000E96E400EEE16EE6AEE6AEE6AFE0EEA6A7F
:10106000DB34FE0BEA36E96ED70EE926000EEA22E3
:10107000EE50EFCFEAFFE96EEE7CFE0EEA6ADB345B
:10108000FE0BEA36E96ED70EE926000EEA22EF746F
:10109000400E106EFE0EEA6ADB34FE0BEA36E96E95
:1010A000D70EE926000EEA22EE50EFCFEAFFE96EF6
:1010B0001050EF16FE0EEA6ADB34FE0BEA36E96EDC
:1010C000D70EE926000EEA22EE50EFCFEAFFE96ED6
:1010D000EF7CE552E7CFD9FF1200646A606A000135
:1010E000C86B12000001C85114E1646A606A160EF0
:1010F000616E0F019F0E5B6F7B0E606ED08EA284BF
:10110000A084F28E64B602D06486FCD70001010E82
:04111000C86F120092
:0C111400DACFE4FFE2CFDAFFE9CFE4FF1E
:10112000EACFE4FFF6CFE4FFF7CFE4FFF5CFE4FF2B
:10113000F3CFE4FFF4CFE4FFFACFE4FF00EE00F0DA
:10114000100EE80403E3EECFE4FFFBD700EE10F04F
:101150000A0EE80403E3EECFE4FFFBD7E65285EC8A
:1011600000F09D50100B05E09E50100B02E099EC32
:101170000EF0E55200EE19F00A0EE80403E3E5CFA5
:10118000EDFFFBD700EE0FF0100EE80403E3E5CF10
:10119000EDFFFBD7E5CFFAFFE5CFF4FFE5CFF3FF97
:1011A000E5CFF5FFE5CFF7FFE5CFF6FFE5CFEAFFA7
:1011B000E5CFE9FFE5CFDAFF1100D8CFE4FFE0CFBC
:1011C000E4FFE46EDACFE4FFE6529D50020B66E0E6
:1011D0009E50020B63E00101E80E415D030E42598F
:1011E00003E2412B000E4223C80E435D000E44591A
:1011F00003E2432B000E4423300E475D750E485921
:1012000003E2472B000E48234D2B000E4E234F23A5
:10121000A00E4D5D860E4E59010E4F5906E34A6BE6
:101220004B6B4C6B4D6B4E6B4F6B465105E0AC50AE
:10123000020B02E08A9C466BE80E505D030E51598A
:101240000AE2502B000E5123F40E501904E1010E56
:10125000511901E18280562B000E57235451565DDF
:10126000555157591AE3566B576B582B5951E8246F
:10127000585D06E1A00E546F0F0E556F82940DD08D
:101280005951E824D880585507E2DC0E546F050EFA
:10129000556F586B828401D082749E92E552E5CFDF
:1012A000DAFFE550E5CFE0FFE5CFD8FF10000DD81D
:1012B0000001C85102E172EC08F0C9D8A7DA48DA97
:1012C0001CEC10F060EC16F0F3D70F0EC112E8EC36
:1012D0000FF004D817EC00F007EF17F000011F0E15
:1012E000806F816B826B010EA36F1F0EA46FA56BC5
:1012F000A66B010EC76F7E6A7F6AF80E9416828015
:1013000082928294FC0ECA140309CA6E4B0ECB6EF5
:10131000CC6A9E929D829F92D08EF28EF28EF28C3B
:10132000CA8412001200120012001200E3EF14F03F
:10133000120031EF15F01200D9CFE6FFE1CFD9FF4F
:10134000FD0EDBCF08F0FE0EDBCF09F0720E0818A1
:1013500001E1095033E0E868081802E17F0E09183E
:101360002BE0740E081801E1095024E0750E0818EE
:1013700001E109501DE0730E081801E1095016E063
:10138000030E081801E109500FE0020E081801E1F0
:10139000095008E0010E081801E1095001E010D0E1
:1013A000C8DF0FD0C5DF0DD0C1DF0BD0BDDF09D046
:1013B000B9DF07D0B8DF05D0B8DF03D0000001D017
:1013C00000D0010E00D0E552E7CFD9FF1200D9CFEF
:1013D000E6FFE1CFD9FF040EE126DE6ADD6A020EE8
:1013E000DB6A030EDB6A020EDBCF10F0030EDBCFED
:1013F00011F0FC0EDB50000111AE02D0D89003D0EA
:10140000105C000E115816E2020EDBCF10F0030E36
:10141000DBCF11F0FD0EDB501024E96EFE0EDB5029
:101420001120EA6EEF50DF1A020EDB2A030EDBE317
:10143000DB2AD9D7DF50106E040EE15C02E2E16ACC
:10144000E552E16E1050E552E7CFD9FF1200D9CF37
:10145000E6FFE1CFD9FF020EE1260001A65101010E
:101460005D5D14E0C80E435D000E44590FE35DC19D
:10147000A6F00001A551A65D02E1010EC76F0101B2
:10148000436B446BAB8686EC0FF058D1880E475DFA
:10149000130E485902E3535105E0300E475D750EB7
:1014A000485918E3495116E1010E496F0001606F78
:1014B000050E616F040E626F01016A510BE1030EAC
:1014C000E66E600EE66E000EE66EC2EC15F0E552BA
:1014D000E552E5528A50400B01E030D128EC17F07C
:1014E000000901E12BD10101436B446B2DEC17F096
:1014F00007C05AF108C05BF109C05CF109C010F0E7
:10150000116A126A10AE02D01168126810500101FF
:101510004D2711504E2312504F235B5104E1AB5025
:10152000080B01E00BD15B5101E1B7D01F0E5A153A
:10153000525D04E01F0E5A1501E000D1DF6A010E72
:10154000DB6A080EDF5C18E201015A51DF5206E047
:10155000DFCFF3FFE8327F0BF306FCE1010B0AE07B
:10156000010EDB5002E0000E01D0010EE76E010E0D
:10157000E7CFDBFFDF2AE5D7010EDB5001E07AD0B1
:101580000101E80E505D030E515903E38290506B48
:10159000516B82925D510001A65D09E05DC1A6F02C
:1015A000A551A65D02E1010EC76F86EC0FF00101A7
:1015B0005A51E00BE838E840030B02083BE11F0EEC
:1015C0005A15525D37E1496B536B880E475D130E18
:1015D000485902E344EC0FF00101476B486B800E61
:1015E000E66E000EE66EB5EC11F0E552E552106EB7
:1015F000020E105C01E2A2D0800EE66E000EE66ED6
:10160000B5EC11F0E552E552116E00018151EA6A24
:10161000830FE96E000EEA22EF500F0B020F115CF0
:1016200001E28CD08A8C81C0E6FFFDEC0FF0E55220
:1016300080DB84D05A51E00BE838E840030B1DE111
:101640001F0E5A15525D19E10001200E606F616F87
:10165000020EE66E600EE66E000EE66E800EE66E20
:10166000000EE66EE1EC13F0106E050EE15E105018
:101670008A8C5FDB5AEC0FF061D0AB96A6C05DF1AF
:101680005E6B5AC1E6FFA40EE66E000EE66E5EECDF
:1016900010F0E552E552E55251D0A40EE66E000E70
:1016A000E66EF9EC11F0E552E55200090CE05DC17F
:1016B000A6F0AB860001A551A65D02E1010EC76F41
:1016C00070EC0FF03BD05AC1E6FFA40EE66E000EA0
:1016D000E66E5EEC10F0E552E552E55201015A511A
:1016E0005E1BA6C0E6FF5DC1E6FFA40EE66E000E1F
:1016F000E66E92EC12F0E552E552E552E552106EBC
:1017000001015D290001A415EA6AA70FE96E000E28
:10171000EA22EF500F0B030F105C10E301015E5142
:101720000AE05DC1A6F00001A551A65D02E1010E2F
:10173000C76FC0DB02D0A6C05DF1AB86020EE15CD4
:1017400002E2E16AE552E16EE552E7CFD9FF12000D
:1017500001016A5101E01200A40EE66E000EE66E71
:10176000B5EC11F0E552E552106E010E105C4DE340
:10177000A40EE66E000EE66EB5EC11F0E552E552F1
:10178000116E0001A529A415EA6AA70FE96E000EE3
:10179000EA22EF500F0B030F115C37E3A529A415C4
:1017A000EA6AA70FE96E000EEA22EF500F0B030F53
:1017B000E66EA5C0E6FF600EE66E000EE66EA40EB5
:1017C000E66E000EE66EAAEC12F0106E060EE15EFA
:1017D00010500F0E00016115020FE66E610EE66EED
:1017E000000EE66EC2EC15F0E552E552E5520F0E22
:1017F00000016115030FE66EA40EE66E000EE66EA4
:1018000028EC11F0E552E552E5521200D9CFE6FF7F
:10181000E1CFD9FF030EE126200E0001E76EC819C3
:10182000E8AE02D0E73402D0E750C85D01E213D140
:101830006450020B01E00FD101016A5101E00BD1AC
:10184000800EE66E000EE66EF9EC11F0E552E55200
:10185000000907E0800EE66E000EE66EB9EC14F0AB
:10186000E7D0800EE66E000EE66E53EC12F0E55205
:10187000E552E66E800EE66E000EE66E65EC15F043
:10188000E552E552E552E76E020EE7CFDBFFDB5093
:101890002BE10101E80E415D030E425901E2DBD06C
:1018A0000001825101015F5D01E1D5D05FC182F08D
:1018B000416B426B00018151825D02E1010EA36F19
:1018C000010E606F616F626B01016A5101E0C3D06C
:1018D000030EE66E600EE66E000EE66EC2EC15F0CC
:1018E000E552E552E552B7D00101416B426B82C02F
:1018F000E6FF5FC1E6FF800EE66E000EE66E92EC3C
:1019000012F0E552E552E552E552000801E3A3D09A
:1019100082C0E6FF5FC1E6FF800EE66E000EE66E57
:1019200092EC12F0E552E552E552E552106E0101DB
:101930005F51EA6A830FE96E000EEA22EF500F0B47
:10194000020F105C01E287D0010EDB6ADF6A010141
:101950005F51EA6A830FE96E000EEA22EF500F0B27
:10196000020FFF0FF36E010EDBCFF4FFF350F45CB8
:101970000FE2010EDB505F2500018015EA6A830F3C
:10198000E96E000EEA22EF50DF1A010EDB2ADFD7E4
:10199000010EDB505F2500018015EA6A830FE96EB6
:1019A000000EEA22EF50DF5C19E001015F51EA6AA4
:1019B000830FE96E000EEA22EF500F0B020FE66E66
:1019C0005FC1E6FF800EE66E000EE66E08EC13F0D7
:1019D000E552E552E552E5526DDA3DD001015F5125
:1019E000EA6A830FE96E000EEA22EF500F0B020F36
:1019F000E66E5FC1E6FF39D8E552E552000901E124
:101A000076D70101495118E05F51EA6A830FE96E08
:101A1000000EEA22EF500F0B020FE66E5FC1E6FFE9
:101A2000800EE66E000EE66E08EC13F0E552E5520D
:101A3000E552E55255DA0FD05F51EA6A830FE96E3D
:101A4000000EEA22EF500F0B020F5F2500018015F8
:101A500001015F6F4CD7030EE15C02E2E16AE552DF
:101A6000E16EE552E7CFD9FF1200D9CFE6FFE1CF13
:101A7000D9FFFE0EDB50EA6A830FE96E000EEA2200
:101A8000EF50F00827E1020EE66EFE0EDBCFE6FF18
:101A9000800EE66E000EE66E08EC13F0E552E5529D
:101AA000E552E5520001020E606F200E616F100ECC
:101AB000626F030EE66E600EE66E000EE66E87DC69
:101AC000E552E552E5520001636F01016A5101E000
:101AD0002BD1B0D0FE0EDB50EA6A830FE96E000E08
:101AE000EA22EF50F20860E1FE0EDB2800018015CB
:101AF000EA6A830FE96E000EEA22EF0455E1040E54
:101B0000E66EFE0EDBCFE6FF800EE66E000EE66EA2
:101B100008EC13F0E552E552E552E552FE0EDB50BB
:101B2000020F00018015EA6A830FE96E000EEA22B7
:101B3000EF50000821E2FE0EDB50020F8015EA6A2A
:101B4000830FE96E000EEA22EFCF10F0200E105C3A
:101B500013E2FE0EDB50020F8015EA6A830FE96E76
:101B6000000EEA22EF501F0B0101526FE66EE66A8B
:101B70000AEC18F0E552E5520001F20E606F010E1A
:101B8000616F52C162F0030EE66E600EE66E000EEB
:101B9000E66E1DDCE552E552E5520001636F01017E
:101BA0006A5101E0C1D046D0FE0EDB50EA6A830FD5
:101BB000E96E000EEA22EF50F2083EE1FE0EDB284D
:101BC00000018015EA6A830FE96E000EEA22EF50E9
:101BD000020832E1040EE66EFE0EDBCFE6FF800E59
:101BE000E66E000EE66E08EC13F0E552E552E552A3
:101BF000E5520001F20E606F020E616FFE0EDB50C7
:101C0000020F8015EA6A830FE96E000EEA22EFCF19
:101C100062F0030EE66E600EE66E000EE66EE7EC16
:101C200009F0E552E552E5520001636F01016A5186
:101C300001E07AD0040E6BD0FE0EDB50EA6A830F0F
:101C4000E96E000EEA22EF50F1086CE1FE0EDB288F
:101C500000018015EA6A830FE96E000EEA22EF5058
:101C6000050860E1030EE66EFE0EDBCFE6FF800E98
:101C7000E66E000EE66E08EC13F0E552E552E55212
:101C8000E5520001F40E606F050E616F100E1F0B20
:101C90004AC110F04BC111F04CC112F006E0D890CF
:101CA000123211321032E806FAE1116A126A10C0DB
:101CB00062F0080E1F0B4AC110F04BC111F04CC16D
:101CC00012F006E0D890123211321032E806FAE132
:101CD000116A126A10C063F04AC110F04BC111F0D2
:101CE0004CC112F0116A126A10C064F0050EE66E63
:101CF000600EE66E000EE66EE7EC09F0E552E55286
:101D0000E5520001656F01016A510EE1060EE66EB3
:101D1000600EE66E000EE66EC2EC15F0E552E5527E
:101D2000E55202D0010E01D0000EE552E7CFD9FFF7
:101D3000120001014551EA6A830FE96E000EEA22A2
:101D4000EF50E66E000EE66EE66A17EC17F0E5520D
:101D5000E552E55201014529000180150101456F59
:101D600000018151EA6A830FE96E000EEA22EF500A
:101D70000F0B020F812580150101455D25E1000152
:101D80008151EA6A830FE96E000EEA22EFCF60F11B
:101D900081298015EA6A830FE96E000EEA22EFCFEF
:101DA00061F145C181F08251815D02E1010EA36FB5
:101DB00061C1E6FF60C1E6FFBFD8E552E5529D98DC
:101DC0000101010E466F12009D8882821200D9CF58
:101DD000E6FFE1CFD9FF020EE126DE6ADD6ADECF43
:101DE00010F0DDCF11F0FD0EDBCFE9FFFE0EDBCFF3
:101DF000EAFFEF50126E136A13501118E8AE02D0CA
:101E0000113404D01050125C1150135822E3FD0E0F
:101E1000DBCFE9FFFE0EDBCFEAFF030EE926000E63
:101E2000EA22DE50E924E96EDD50EA20EA6EEF5046
:101E3000E66EDECFE9FFDDCFEAFF600EE926000E99
:101E4000EA22E552E750EF6EDF2A010EC8E3DB2AF3
:101E5000C6D7FD0EDBCFE9FFFE0EDBCFEAFFEF2892
:101E6000E66E600EE66E000EE66EC2EC15F0E55210
:101E7000E552E552020EE15C02E2E16AE552E16EF2
:101E8000E552E7CFD9FF12000001010E606F040E8A
:101E9000616F050E626F01016A510BE1030EE66E80
:101EA000600EE66E000EE66EC2EC15F0E552E552ED
:101EB000E55212000001010E606F030E616F020E09
:101EC000626F01016A510BE1030EE66E600EE66E71
:101ED000000EE66EC2EC15F0E552E552E552120036
:101EE0000001010E606F060E616F070E626F010147
:101EF0006A510BE1030EE66E600EE66E000EE66EB2
:101F0000C2EC15F0E552E552E55212000001010E57
:101F1000606F020E616F030E626F01016A510BE187
:101F2000030EE66E600EE66E000EE66EC2EC15F075
:101F3000E552E552E5521200D9CFE6FFE1CFD9FFD5
:101F4000020EE126900EF36EFE0EDBCFF4FFF3508F
:101F5000F45C04E3FE0EDB509F0829E2DE6ADD6AD2
:101F6000DECF10F0DDCF11F0070E105C000E11581F
:101F700025E2DECFE9FFDDCFEAFF620EE926010EA2
:101F8000EA22EF50F36EFE0EDB50F35C12E1FE0E20
:101F9000DB50E30804E1FD0EDB5044080AE1FE0ECD
:101FA000DB50220804E1FD0EDB50220802E16CDF69
:101FB00005D0DF2A010ED4E3DB2AD2D7020EE15C82
:101FC00002E2E16AE552E16EE552E7CFD9FF120085
:101FD000E66AFCEC17F0E5520101526F010E525D0A
:101FE00003E352511F0808E21D0E526FE66EE66AC7
:101FF0000AEC18F0E552E5521200D9CFE6FFE1CF26
:10200000D9FFFE0EDB50EA6A830FE96E000EEA226A
:10201000EF5022080AE0FE0EDB50EA6A830FE96EF9
:10202000000EEA22EF50230803E10101010E536F75
:10203000E552E7CFD9FF1200D9CFE6FFE1CFD9FFB4
:10204000E6520101D8800A0E4A55000E4B55000E8B
:102050004C5502E3000E01D0010EE824DF6EA40E01
:10206000E66E000EE66EB5EC11F0E552E552106E2C
:102070000001A429FE0BE842105C11E2800EE66E1E
:10208000000EE66EB5EC11F0E552E552116E00015E
:102090008029FE0BE842115C02E2000E01D0010E25
:1020A000040DF350DF12DF5002E1010EDF6EDFCFCF
:0C20B00059F1E552E552E7CFD9FF1200CC
:0420BC00D9CFE6FF93
:1020C000E1CFD9FFFD0EDBCFE9FFFE0EDBCFEAFF4C
:1020D000030EE926000EEA22E9CF10F0EACF11F054
:1020E000FD0EDBCFE9FFFE0EDBCFEAFF020EE92695
:1020F000000EEA22EF501024E96E000E1120EA6E65
:10210000FC0EDBCFEFFFFD0EDBCFE9FFFE0EDBCFDA
:10211000EAFFEFCF10F0FD0EDBCFE9FFFE0EDBCFC5
:10212000EAFF020EE926000EEA22EF281014E66EFE
:10213000FD0EDBCFE9FFFE0EDBCFEAFF020EE92644
:10214000000EEA22E552E750EF6EFD0EDBCFE9FF0D
:10215000FE0EDBCFEAFF230EE926000EEA22EF6A2D
:10216000E552E7CFD9FF1200D9CFE6FFE1CFD9FF83
:10217000E652FD0EDBCFE6FFFE0EDBCFE6FFF5D825
:10218000E552E552000902E1000E5DD0FD0EDBCF05
:10219000E9FFFE0EDBCFEAFF030EE926000EEA227E
:1021A000E9CF10F0EACF11F0FD0EDBCFE9FFFE0E14
:1021B000DBCFEAFFEE52EF500F011024E96E000E64
:1021C0001120EA6EEFCFDFFFFD0EDBCFE9FFFE0E41
:1021D000DBCFEAFFEFCF10F0FD0EDBCFE9FFFE0E05
:1021E000DBCFEAFFEE52EF281014E66EFD0EDBCFD8
:1021F000E9FFFE0EDBCFEAFFEE52E552E750EF6E4D
:10220000FD0EDBCFE9FFFE0EDBCFEAFFEE52EFCF94
:1022100010F0FD0EDBCFE9FFFE0EDBCFEAFF020E72
:10222000E926000EEA22EF50105C0CE1FD0EDBCF38
:10223000E9FFFE0EDBCFEAFF230EE926000EEA22BD
:10224000010EEF6EDF50E552E552E7CFD9FF1200E5
:10225000D9CFE6FFE1CFD9FFE652FD0EDBCFE6FF97
:10226000FE0EDBCFE6FF81D8E552E552DF6EFC0EB5
:10227000DB50D880DF5403E2FC0EDB50DF6EFD0E36
:10228000DBCFE9FFFE0EDBCFEAFFEFCF10F0FD0E54
:10229000DBCFE9FFFE0EDBCFEAFFEE52EF50DF248B
:1022A0001014E66EFD0EDBCFE9FFFE0EDBCFEAFF7A
:1022B000EE52E552E750EF6EFD0EDBCFE9FFFE0E6A
:1022C000DBCFEAFFEE52EFCF10F0FD0EDBCFE9FFE0
:1022D000FE0EDBCFEAFF020EE926000EEA22EF50E7
:1022E000105C0CE1FD0EDBCFE9FFFE0EDBCFEAFF59
:1022F000230EE926000EEA22010EEF6EE552E552AA
:10230000E7CFD9FF1200D9CFE6FFE1CFD9FFE652E0
:10231000FD0EDBCFE9FFFE0EDBCFEAFFEFCF10F0C3
:10232000FC0EDBCFE6FFFD0EDBCFE9FFFE0EDBCFC1
:10233000EAFFEE52EF50E552E7241014DF6EFD0E77
:10234000DBCFE9FFFE0EDBCFEAFF030EE926000E2E
:10235000EA22DF50E924E96E000EEA20EA6EEF502F
:10236000E552E552E7CFD9FF1200D9CFE6FFE1CF22
:10237000D9FFFD0EDBCFE9FFFE0EDBCFEAFFEF2832
:10238000136EE66EFD0EDBCFE6FFFE0EDBCFE6FF43
:1023900030D8E552E552E552E7CF13F0000902E1EB
:1023A000000E01D0010E1302F3CF12F0FD0EDBCFB1
:1023B000E9FFFE0EDBCFEAFFEFCF11F0FD0EDBCF22
:1023C000E9FFFE0EDBCFEAFF020EE926000EEA224D
:1023D000EFCF10F0FD0EDBCFE9FFFE0EDBCFEAFF03
:1023E000EE52EF50105C1114F324E552E7CFD9FF01
:1023F0001200D9CFE6FFE1CFD9FFFD0EDBCFE9FF19
:10240000FE0EDBCFEAFFEE52EFCF10F0FD0EDBCF7A
:10241000E9FFFE0EDBCFEAFF020EE926000EEA22FC
:10242000EF50105C0CE1FD0EDBCFE9FFFE0EDBCFC1
:10243000EAFF230EE926000EEA22EF5002E0000E2A
:1024400001D0010EE552E7CFD9FF1200D9CFE6FF48
:10245000E1CFD9FFFD0EDBCFE9FFFE0EDBCFEAFFB8
:10246000EE52EFCF10F0FD0EDBCFE9FFFE0EDBCF1B
:10247000EAFF020EE926000EEA22EF50105C0CE1A2
:10248000FD0EDBCFE9FFFE0EDBCFEAFF230EE926D0
:10249000000EEA22EF5002E1000E01D0010EE552DB
:1024A000E7CFD9FF1200D9CFE6FFE1CFD9FFFD0E6C
:1024B000DBCFE9FFFE0EDBCFEAFFEF28136EFD0E48
:1024C000DBCFE9FFFE0EDBCFEAFF230EE926000E8D
:1024D000EA22EF5002E1000E01D0010E1302FD0EC0
:1024E000DBCFE9FFFE0EDBCFEAFFEFCF11F0FD0EF1
:1024F000DBCFE9FFFE0EDBCFEAFFEE52EFCF10F0AD
:10250000FD0EDBCFE9FFFE0EDBCFEAFF020EE92670
:10251000000EEA22EF50105C1114F324E552E7CFCD
:10252000D9FF1200D9CFE6FFE1CFD9FFFD0EDBCFF7
:10253000E9FFFE0EDBCFEAFFEFCF10F0FB0EDBCFA3
:10254000E6FFFC0EDB50E552E75C1014E552E7CFE6
:10255000D9FF1200D9CFE6FFE1CFD9FF020EE12665
:10256000DE6ADD6ADECF10F0DDCF11F0F90EDB5050
:10257000000111AE02D0D89003D0105C000E1158AB
:102580003DE2FD0EDBCFE9FFFE0EDBCFEAFF030EDF
:10259000E926000EEA22E9CF12F0EACF13F0FA0E94
:1025A000DB50186E196ADE501824166EDD501920A3
:1025B000FD0EDBCFE9FFFE0EDBCFEAFFEF50161476
:1025C000146E156A12501424E96E13501520EA6E29
:1025D000EF50E66EFB0EDBCF10F0FC0EDBCF11F000
:1025E000DE501024E96EDD501120EA6EE552E7500E
:1025F000EF6EDF2A010EB6E3DB2AB4D7020EE15CF0
:1026000002E2E16AE552E16EE552E7CFD9FF12003E
:10261000D9CFE6FFE1CFD9FF020EE126FC0EDB5059
:10262000DE6EDD6AFD0EDBCFE9FFFE0EDBCFEAFFDB
:10263000EFCF12F0FB0EDBCFE6FFFD0EDBCFE9FFA5
:10264000FE0EDBCFEAFF020EE926000EEA22EF5073
:10265000E552D880E7541214116AE850DF1803E1FC
:102660001150DE52DD1866E0FD0EDBCFE9FFFE0EF5
:10267000DBCFEAFF030EE926000EEA22E9CF14F0D1
:10268000EACF15F0FB0EDB50E76E000EDFCF18F03F
:10269000010EDBCF19F0E7501826000E1922FD0EAF
:1026A000DBCFE9FFFE0EDBCFEAFFEF50000118148D
:1026B000166E176A14501624E96E15501720EA6E2C
:1026C000EF50E66EFD0EDBCFE9FFFE0EDBCFEAFF3B
:1026D000030EE926000EEA22E9CF10F0EACF11F04E
:1026E000FD0EDBCFE9FFFE0EDBCFEAFFEF50126EEF
:1026F000136A000EDFCF08F0010EDBCF09F012C025
:102700000DF013C00EF029EC18F013AE04D0046CD9
:10271000051E000E052210500424E96E11500520FC
:10272000EA6EE552E750EF6EDF2A010E01E27AD73A
:10273000DB2A78D7FD0EDBCFE9FFFE0EDBCFEAFF09
:10274000EF50E76E000EDFCF10F0010EE7501016CD
:10275000116AFD0EDBCFE9FFFE0EDBCFEAFF020EB2
:10276000E926000EEA2210C0EFFFFD0EDBCFE9FFE5
:10277000FE0EDBCFEAFFEE52EFCF10F0FD0EDBCF07
:10278000E9FFFE0EDBCFEAFF020EE926000EEA2289
:10279000EF50105C0CE1FD0EDBCFE9FFFE0EDBCF4E
:1027A000EAFF230EE926000EEA22010EEF6E020E6A
:1027B000E15C02E2E16AE552E16EE552E7CFD9FF62
:1027C0001200D9CFE6FFE1CFD9FF020EE126FD0EC0
:1027D000DBCFE9FFFE0EDBCFEAFFEFCF10F0FA0E02
:1027E000DBCFE6FFFD0EDBCFE9FFFE0EDBCFEAFF1E
:1027F000EE52EF50E552D880E7541014E66EFD0E0D
:10280000DBCFE9FFFE0EDBCFEAFFEE52E552E750E9
:10281000EF6EDE6ADD6ADECF10F0DDCF11F0FA0E6A
:10282000DB50000111AE02D0D89003D0105C000E36
:10283000115801E385D0FB0EDBCF18F0FC0EDBCF87
:1028400019F0DE501824E96EDD501920EA6EEF50C1
:10285000E66EFD0EDBCFE9FFFE0EDBCFEAFF030ED7
:10286000E926000EEA22E9CF10F0EACF11F0FD0EC2
:10287000DBCFE9FFFE0EDBCFEAFFEE52EF50166E24
:10288000176ADE501624146EDD501720FD0EDBCFC4
:10289000E9FFFE0EDBCFEAFFEF501414126E136A4D
:1028A00010501224E96E11501320EA6EE552E750E1
:1028B000EF6EFD0EDBCFE9FFFE0EDBCFEAFFEE523F
:1028C000EF50146E156ADE501424126EDD50152080
:1028D000FD0EDBCFE9FFFE0EDBCFEAFFEF50121457
:1028E000106E116AFD0EDBCFE9FFFE0EDBCFEAFFB3
:1028F000020EE926000EEA22EF50176AE85010187F
:1029000019E11750111816E1FD0EDBCFE9FFFE0E9D
:10291000DBCFEAFFEE52EF50E66EFD0EDBCFE9FFB4
:10292000FE0EDBCFEAFF020EE926000EEA22E55298
:10293000E750EF6EDF2A010E01E26DD7DB2A6BD77D
:10294000FA0EDB5000080BE2FD0EDBCFE9FFFE0EB6
:10295000DBCFEAFF230EE926000EEA22EF6A020E21
:10296000E15C02E2E16AE552E16EE552E7CFD9FFB0
:102970001200D9CFE6FFE1CFD9FFFD0EDBCFE9FF93
:10298000FE0EDBCFEAFF020EE926000EEA22EF5030
:10299000E66EFD0EDBCFE9FFFE0EDBCFEAFFEE5267
:1029A000E552E750EF6EFD0EDBCFE9FFFE0EDBCF09
:1029B000EAFF230EE926000EEA22010EEF6EE55231
:0629C000E7CFD9FF120071
:0A29C600020140511F0B010801E05F
:1029D00012004051600BE842E842E842E842E84217
:1029E000010801E01200445103E0440501E0120037
:1029F0004151220A31E0030A24E0010A15E0210ACC
:102A00000DE0010A01E0120000017A0EE16F010EF3
:102A1000E26F080EE46FE56BE38121D000017A0ECE
:102A2000E16F010EE26F1BD046C2E9F047C2EAF047
:102A30000001D80EE66F020EE76FEB6BEC6BE88FD0
:102A400012000001D80EE16F020EE26F070EE46F74
:102A5000E56BC10EE36F120042C275F10001E38F16
:102A600012000201D86B4B0ED96FDA6BDB6BDC6B9B
:102A7000DD6B080EDE6F01016A6B696B1A0EE66E84
:102A8000020EE66EF8EC06F0E552E5521E0EE66E1A
:102A9000030EE66EF8EC06F0E552E552400EE66EE7
:102AA000580EE66E020EE66EE66A030EE66E9CECCB
:102AB00007F0106E050EE15E1050F3CF71F1F4CF08
:102AC00072F10101736B746B1200D9CFE6FFE1CF95
:102AD000D9FF0101696B7151721102E1000E08D03A
:102AE00071C1E9FF72C1EAFFEF50800B01E0010EF6
:102AF000000942E1FC0EDBCF10F071C1E9FF72C1A9
:102B0000EAFFEE52EF50D880105408E271C1E9FF9D
:102B100072C1EAFFEE52FC0EEFCFDBFF696BFC0ED9
:102B2000DB50695D16E26951EA6A580FE96E020EE0
:102B3000EA22EF50E66EFD0EDBCFE6FFFE0EDBCFA6
:102B4000E6FF5EEC10F0E552E552E5520101692B1B
:102B5000E6D7400EE66E580EE66E020EE66EE66AA8
:102B6000030EE66E9CEC07F0106E050EE15E105051
:102B7000F3CF71F1F4CF72F101016951E552E7CF62
:102B8000D9FF1200D9CFE6FFE1CFD9FFA094010110
:102B90006A510CE1FD0EDBCF6BF1FE0EDBCF6CF169
:102BA000FC0EDBCF6FF1010E706F6A6FA084E552EF
:102BB000E7CFD9FF1200D9CFE6FFE1CFD9FF030E4F
:102BC000E126A09401016A512DE1DF6AFD0EDBCF01
:102BD00008F0FE0EDBCF09F0DE5208C0DEFF09C0B0
:102BE000DDFFDD52DF2ADF50106E116AFF0E101874
:102BF00002E111500BE0010EDBCFE9FFDB2A020EF0
:102C0000DBCFEAFF01E3DB2AEF50ECE1FD0EDBCF87
:102C10006BF1FE0EDBCF6CF1DFCF6FF10101010E26
:102C2000706F6A6FA084030EE15C02E2E16AE55214
:102C3000E16EE552E7CFD9FF1200D9CFE6FFE1CF31
:102C4000D9FF030EE126A09401016A512EE1DF6A4B
:102C5000FD0EDBCF08F0FE0EDBCF09F0DE5208C020
:102C6000DEFF09C0DDFFDD52DF2ADF50106E116A82
:102C7000FF0E101802E111500CE0010EDBCFF6FF41
:102C8000DB2A020EDBCFF7FF01E3DB2A0800F55059
:102C9000EBE1FD0EDBCF6BF1FE0EDBCF6CF1DFCF96
:102CA0006FF10101706B010E6A6FA084030EE15C8D
:102CB00002E2E16AE552E16EE552E7CFD9FF120088
:102CC000D9CFE6FFE1CFD9FF020EE126A0940101A2
:102CD0007351741102E1000E08D073C1E9FF74C191
:102CE000EAFFEF50800B01E0010E000906E1030E40
:102CF0006A5D01E16A6B6A5102E1A0847ED0020E36
:102D00006A5D16E1E66A000EE66EE66A010EE66EA0
:102D1000030EE66E9CEC07F0106E050EE15E10509F
:102D2000F3CF73F1F4CF74F10101030E6A6F64D035
:102D30006A0562E1400E106E116A6F51105C000E60
:102D4000115803E2400EDF6E02D06FC1DFFFDF508B
:102D50006F5D6F6F980E6D6F020E6E6F010EDFCF9D
:102D6000DBFF705116E1010EDB5028E06BC1F6FF6E
:102D70006CC1F7FF0800F5506DC1E9FF6EC1EAFFB5
:102D8000EF6E6D2B000E6E236B2B6C23010EDB069A
:102D9000EAD7010EDB5012E06BC1E9FF6CC1EAFF1C
:102DA000EF506DC1E9FF6EC1EAFFEF6E6D2B000EB3
:102DB0006E236B2B6C23010EDB06EBD701016F51E9
:102DC00007E1400EDF5C02E1020E01D0030E6A6FE4
:102DD000DFCFE6FF980EE66E020EE66E010EE66E9F
:102DE000030EE66E9CEC07F0106E050EE15E1050CF
:102DF000F3CF73F1F4CF74F1A084020EE15C02E230
:0E2E0000E16AE552E16EE552E7CFD9FF12001C
:022E0E00938AA5
:102E1000939C939EAC94B8960B0EAF6E8A9CAC9824
:102E2000AB8EAC8CAB8CAB86AB88AC8A1200D9CFA6
:102E3000E6FFE1CFD9FFFD0EDB50E8B0AC80E8A0A3
:102E4000AC90FC0EDB50AD6EE552E7CFD9FF12001F
:102E50009E50200B01E0010E1200D9CFE6FFE1CF1A
:102E6000D9FF030EE126AB50040B01E0010EE76E23
:102E7000020EE7CFDBFFAB50010BE76E010EE7CF91
:102E8000DBFFAE50DF6EABB2AB989E9ADFCF10F097
:102E9000010EDBCF11F0020EDBCF12F010C007F0F5
:102EA00011C008F012C009F0030EE15C02E2E16A11
:0C2EB000E552E16EE552E7CFD9FF1200B9
:042EBC00200EF66E80
:102EC000000EF76E000EF86E01010900F550876FD5
:102ED0000900F550886F03E1876701D03DD00900F4
:102EE000F550826F0900F550836F0900F550846F2B
:102EF00009000900F550E96E0900F550EA6E090075
:102F000009000900F550856F0900F550866F09002A
:102F10000900F6CF89F1F7CF8AF1F8CF8BF182C1A2
:102F2000F6FF83C1F7FF84C1F8FF0101855302E179
:102F3000865307E00900F550EE6E8507F8E2860734
:102F4000F9D789C1F6FF8AC1F7FF8BC1F8FF0101EC
:0A2F50008707000E885BBFD7120050
:062F5A001201000202005A
:102F60000008D8040A000001010200010902430020
:102F7000020100C032090400000102020100052420
:102F800000100104240202052406000105240100AA
:102F9000010705820308000209040100020A00007B
:102FA00000070503024000000705830240000004FB
:102FB00003090434034D006900630072006F00636D
:102FC000006800690070002000540065006300681C
:102FD000006E006F006C006F0067007900200049F0
:102FE000006E0063002E00080375004C0049006C61
:072FF0002FAF2FB32FE72FD5
:082FF800D9CFE6FFE1CFD9FFBC
:10300000A66AFE0EDB50A96EA680A850E552E7CF57
:10301000D9FF1200D9CFE6FFE1CFD9FFE652F25037
:10302000DF6EA66AA684FE0EDB50A96EFD0EDB5095
:10303000A86EF29E550EA76EAA0EA76EA682DF504E
:10304000F26EA1A8FED7A694E552E552E7CFD9FFCC
:0230500012006C
:0E305200006A0EAE32EF18F00D6C0E1EE86A2A
:103060000E22001E09AE3AEF18F0086C091EE86A3D
:103070000922001E69EC18F009BE4AEF18F000AEF4
:10308000000C086C091EE86A0922046C051EE86A37
:0E3090000522000C00BE41EF18F00188FF0C75
:02309E00FE0E24
:1030A000E3CFE9FFFF0EE3CFEAFFE9CFF3FFEACF7B
:1030B000F4FFFB0EE35003E1FC0EE35009E0FB0ECE
:1030C000E30602E2FC0EE306FD0EE350EE6EF1D7DE
:0230D0001200EC
:0E30D200056A046A100EE76ED89008360936BB
:1030E000043605360D50045C0E50055805E30D50AE
:0E30F000045E0E50055A082AE72EF0D7120093
:0230FE00000EC2
:10310000F36E00EE00F0030E01D81200EA6002D068
:0E311000EE6AFCD7F350E9601200EE6AFCD7BD
:02311E0011EEB0
:1031200000F021EE00F0F86A019C5EEC17F09DECD7
:0A31300018F057EC09F0FBD712006D
:02313A00120081
:04313C00000000008F
:10314000000000000000000000000000E8031D0077
:10315000DC05000000010000000000000000225219
:053160008384E4E6E3B6
:020000040030CA
:0100000020DF
:0100010032CC
:010002000EEF
:010003001EDE
:01000500807A
:010006008D6C
:0100080003F4
:01000900C036
:01000A0003F2
:01000B00E014
:01000C0003F0
:01000D0040B2
:00000001FF
